:020000040800F2
:1000000000000220B19C0008759A0008779A000849
:10001000799A00087B9A00087D9A00080000000089
:100020000000000000000000000000007F9A0008AF
:10003000819A000800000000839A0008859A000851
:10004000019D0008019D0008019D0008019D000818
:10005000019D0008019D0008019D0008019D000808
:10006000019D0008019D0008019D0008019D0008F8
:10007000019D0008019D0008919A0008019D00085B
:10008000019D0008019D0008A19A0008019D00083B
:10009000019D0008019D0008019D0008019D0008C8
:1000A000019D0008019D0008019D0008019D0008B8
:1000B000B19A0008C19A0008D19A0008E19A000894
:1000C000F19A0008019D0008019D0008019D0008AB
:1000D000019B0008019D0008119B0008019D00087C
:1000E000019D0008019D0008019D0008019D000878
:1000F000019D0008019D0008019D0008019D000868
:10010000019D0008019D0008019D0008019D000857
:10011000019D0008019D0008019D0008019D000847
:10012000019D0008019D0008019D0008019D000837
:10013000019D0008219B0008019D0008019D000809
:10014000019D0008019D0008019D0008019D000817
:10015000019D0008019D0008019D0008019D000807
:10016000019D0008019D0008019D0008019D0008F7
:10017000019D0008019D0008019D0008000000008D
:08018000019D0008019D00082B
:1001900010B5054C237833B9044B13B10448AFF3C1
:1001A00000800123237010BDA40400200000000083
:1001B0003CCE000808B5034B1BB103490348AFF31D
:1001C000008008BD00000000A80400203CCE00080C
:1001D00081F0004102E000BF83F0004330B54FEAF8
:1001E00041044FEA430594EA050F08BF90EA020F65
:1001F0001FBF54EA000C55EA020C7FEA645C7FEAF8
:10020000655C00F0E2804FEA5454D4EB5555B8BF1A
:100210006D420CDD2C4480EA020281EA030382EA8B
:10022000000083EA010180EA020281EA0303362D1D
:1002300088BF30BD11F0004F4FEA01314FF4801CF0
:100240004CEA113102D0404261EB410113F0004F02
:100250004FEA03334CEA133302D0524263EB4303B9
:1002600094EA050F00F0A780A4F10104D5F1200E57
:100270000DDB02FA0EFC22FA05F2801841F10001B2
:1002800003FA0EF2801843FA05F359410EE0A5F186
:1002900020050EF1200E012A03FA0EFC28BF4CF0B7
:1002A000020C43FA05F3C01851EBE37101F000456D
:1002B00007D54FF0000EDCF1000C7EEB00006EEB7A
:1002C0000101B1F5801F1BD3B1F5001F0CD3490804
:1002D0005FEA30004FEA3C0C04F101044FEA44525B
:1002E00012F5800F80F09A80BCF1004F08BF5FEAE2
:1002F000500C50F1000041EB045141EA050130BDC2
:100300005FEA4C0C404141EB010111F4801FA4F164
:100310000104E9D191F0000F04BF01460020B1FAB9
:1003200081F308BF2033A3F10B03B3F120020CDAF1
:100330000C3208DD02F1140CC2F10C0201FA0CF0CF
:1003400021FA02F10CE002F11402D8BFC2F1200C34
:1003500001FA02F120FA0CFCDCBF41EA0C019040EA
:10036000E41AA2BF01EB0451294330BD6FEA040433
:100370001F3C1CDA0C340EDC04F11404C4F120021E
:1003800020FA04F001FA02F340EA030021FA04F330
:1003900045EA030130BDC4F10C04C4F1200220FA87
:1003A00002F001FA04F340EA0300294630BD21FAC5
:1003B00004F0294630BD94F0000F83F4801306BF8B
:1003C00081F480110134013D4EE77FEA645C18BF7F
:1003D0007FEA655C29D094EA050F08BF90EA020F16
:1003E00005D054EA000C04BF1946104630BD91EA0E
:1003F000030F1EBF0021002030BD5FEA545C05D111
:100400004000494128BF41F0004130BD14F580044F
:100410003CBF01F5801130BD01F0004545F0FE41C3
:1004200041F470014FF0000030BD7FEA645C1ABFF8
:10043000194610467FEA655C1CBF0B46024650EA2F
:10044000013406BF52EA033591EA030F41F400215B
:1004500030BD00BF90F0000F04BF0021704730B5E1
:100460004FF4806404F132044FF000054FF00001B6
:1004700050E700BF90F0000F04BF0021704730B577
:100480004FF4806404F1320410F0004548BF40424C
:100490004FF000013EE700BF42004FEAE2014FEAA1
:1004A00031014FEA02701FBF12F07F4393F07F4F7C
:1004B00081F06051704732F07F4208BF704793F07F
:1004C0007F4F04BF41F40021704730B54FF4607492
:1004D00001F0004521F000411CE700BF50EA010295
:1004E00008BF704730B54FF000050AE050EA01023E
:1004F00008BF704730B511F0004502D5404261EBAE
:1005000041014FF4806404F132045FEA915C3FF4EE
:10051000D8AE4FF003025FEADC0C18BF03325FEA8B
:10052000DC0C18BF033202EBDC02C2F1200300FA3C
:1005300003FC20FA02F001FA03FE40EA0E0021FA61
:1005400002F11444BDE600BF70B54FF0FF0C4CF44F
:10055000E06C1CEA11541DBF1CEA135594EA0C0F01
:1005600095EA0C0F00F0DEF82C4481EA030621EA3C
:100570004C5123EA4C5350EA013518BF52EA033577
:1005800041F4801143F4801338D0A0FB02CE4FF029
:100590000005E1FB02E506F00042E0FB03E54FF059
:1005A0000006E1FB03569CF0000F18BF4EF0010E51
:1005B000A4F1FF04B6F5007F64F5407404D25FEA4D
:1005C0004E0E6D4146EB060642EAC62141EA555100
:1005D0004FEAC52040EA5E504FEACE2EB4F1FD0C42
:1005E00088BFBCF5E06F1ED8BEF1004F08BF5FEAC0
:1005F000500E50F1000041EB045170BD06F0004672
:1006000046EA010140EA020081EA0301B4EB5C041E
:10061000C2BFD4EB0C0541EA045170BD41F4801116
:100620004FF0000E013C00F3AB8014F1360FDEBF3B
:10063000002001F0004170BDC4F10004203C35DA17
:100640000C341BDC04F11404C4F1200500FA05F39A
:1006500020FA04F001FA05F240EA020001F000423B
:1006600021F0004110EBD37021FA04F642EB0601B1
:100670005EEA430E08BF20EAD37070BDC4F10C04DB
:10068000C4F1200500FA04F320FA05F001FA04F29F
:1006900040EA020001F0004110EBD37041F100018B
:1006A0005EEA430E08BF20EAD37070BDC4F1200596
:1006B00000FA05F24EEA020E20FA04F301FA05F2FE
:1006C00043EA020321FA04F001F0004121FA04F2A6
:1006D00020EA020000EBD3705EEA430E08BF20EA76
:1006E000D37070BD94F0000F0FD101F000464000B0
:1006F00041EB010111F4801F08BF013CF7D041EA32
:10070000060195F0000F18BF704703F00046520035
:1007100043EB030313F4801F08BF013DF7D043EA06
:100720000603704794EA0C0F0CEA135518BF95EABC
:100730000C0F0CD050EA410618BF52EA4306D1D143
:1007400081EA030101F000414FF0000070BD50EA62
:10075000410606BF1046194652EA430619D094EAEC
:100760000C0F02D150EA013613D195EA0C0F05D1D6
:1007700052EA03361CBF104619460AD181EA03012A
:1007800001F0004141F0FE4141F470014FF00000E2
:1007900070BD41F0FE4141F4780170BD70B54FF07D
:1007A000FF0C4CF4E06C1CEA11541DBF1CEA1355FD
:1007B00094EA0C0F95EA0C0F00F0A7F8A4EB0504DF
:1007C00081EA030E52EA03354FEA013100F08880D6
:1007D0004FEA03334FF0805545EA131343EA12639F
:1007E0004FEA022245EA111545EA10654FEA002654
:1007F0000EF000419D4208BF964244F1FD0404F50D
:10080000407402D25B084FEA3202B61A65EB030568
:100810005B084FEA32024FF480104FF4002CB6EB25
:10082000020E75EB030E22BFB61A754640EA0C00A5
:100830005B084FEA3202B6EB020E75EB030E22BFE5
:10084000B61A754640EA5C005B084FEA3202B6EB26
:10085000020E75EB030E22BFB61A754640EA9C00E5
:100860005B084FEA3202B6EB020E75EB030E22BFB5
:10087000B61A754640EADC0055EA060E18D04FEA73
:10088000051545EA16754FEA06164FEAC30343EA13
:1008900052734FEAC2025FEA1C1CC0D111F4801FE0
:1008A0000BD141EA00014FF000004FF0004CB6E7D9
:1008B00011F4801F04BF01430020B4F1FD0C88BF78
:1008C000BCF5E06F3FF6AFAEB5EB030C04BFB6EB83
:1008D000020C5FEA500C50F1000041EB045170BD76
:1008E0000EF0004E4EEA113114EB5C04C2BFD4EBA3
:1008F0000C0541EA045170BD41F480114FF0000E27
:10090000013C90E645EA060E8DE60CEA135594EAA2
:100910000C0F08BF95EA0C0F3FF43BAF94EA0C0FA5
:100920000AD150EA01347FF434AF95EA0C0F7FF41A
:1009300025AF104619462CE795EA0C0F06D152EA6E
:1009400003353FF4FDAE1046194622E750EA410652
:1009500018BF52EA43067FF4C5AE50EA41047FF463
:100960000DAF52EA43057FF4EBAE12E74FF0FF3CC8
:1009700006E000BF4FF0010C02E000BF4FF0010C99
:100980004DF804CD4FEA410C7FEA6C5C4FEA430C12
:1009900018BF7FEA6C5C1BD001B050EA410C0CBF61
:1009A00052EA430C91EA030F02BF90EA020F0020C3
:1009B000704710F1000F91EA030F58BF994208BF2A
:1009C00090422CBFD8176FEAE37040F001007047E7
:1009D0004FEA410C7FEA6C5C02D150EA013C07D13E
:1009E0004FEA430C7FEA6C5CD6D152EA033CD3D089
:1009F0005DF8040B704700BF8446104662468C4683
:100A00001946634600E000BF01B5FFF7B7FF0028B5
:100A100048BF10F1000F01BD4DF808EDFFF7F4FFDE
:100A20000CBF012000205DF808FB00BF4DF808ED69
:100A3000FFF7EAFF34BF012000205DF808FB00BF8C
:100A40004DF808EDFFF7E0FF94BF012000205DF8AE
:100A500008FB00BF4DF808EDFFF7CEFF94BF012063
:100A600000205DF808FB00BF4DF808EDFFF7C4FF5C
:100A700034BF012000205DF808FB00BF4A0011D2FE
:100A800012F5001211D20DD56FF47873B3EB6252E8
:100A90000ED44FEAC12343F0004343EA505323FAF4
:100AA00002F070474FF00000704750EA013002D169
:100AB0004FF0FF3070474FF0000070474FEA41029F
:100AC000B2F1E04324BFB3F5001CDCF1FE5C0DD9AC
:100AD00001F0004C4FEAC0024CEA5070B2F1004FF6
:100AE00040EB830008BF20F00100704711F0804FF9
:100AF00021D113F13872BCBF01F00040704741F4BE
:100B000080114FEA5252C2F11802C2F1200C10FAC1
:100B10000CF320FA02F018BF40F001004FEAC123A5
:100B20004FEAD32303FA0CFC40EA0C0023FA02F349
:100B30004FEA4303CCE77FEA625307D150EA01331F
:100B40001EBF4FF0FE4040F44000704701F00040EF
:100B500040F0FE4040F40000704700BF53B94AB96E
:100B6000002908BF00281CBF4FF0FF314FF0FF30B5
:100B700000F072B9ADF1080C6DE904CE00F006F892
:100B8000DDF804E0DDE9022304B070472DE9F04709
:100B9000089E04468846002B4BD18A42154667D9E9
:100BA000B2FA82F24AB1C2F1200701FA02F320FA46
:100BB00007F7954047EA030894404FEA154E230C87
:100BC000B8FBFEF71FFA85FC0EFB178843EA0843C3
:100BD00007FB0CF1994209D9EB1807F1FF3080F0BF
:100BE0001B81994240F21881023F2B445B1AA4B248
:100BF000B3FBFEF00EFB103344EA034400FB0CFC95
:100C0000A44509D92C1900F1FF3380F00781A445D0
:100C100040F2048102382C4440EA0740A4EB0C0463
:100C200000271EB1D4400023C6E900433946BDE881
:100C3000F0878B4209D9002E00F0EB800027C6E92F
:100C4000000138463946BDE8F087B3FA83F7002F34
:100C500047D18B4202D3824200F2FA80841A61EBC0
:100C6000030301209846002EE0D0C6E90048DDE7E6
:100C700002B9FFDEB2FA82F2002A40F08F80491BEF
:100C80004FEA154E1FFA85F80127B1FBFEFC230C35
:100C90000EFB1C1143EA014308FB0CF1994207D9F2
:100CA000EB180CF1FF3002D2994200F2CD8084465D
:100CB000591AA3B2B1FBFEF00EFB101443EA044430
:100CC00008FB00F8A04507D92C1900F1FF3302D228
:100CD000A04500F2B6801846A4EB080440EA0C4098
:100CE0009FE7C7F1200CBB4022FA0CFE4EEA030E30
:100CF00001FA07F420FA0CF521FA0CF34FEA1E482A
:100D00002543B3FBF8F92C0C08FB19331FFA8EFAB4
:100D100044EA034309FB0AF49C4202FA07F200FA90
:100D200007F10BD91EEB030309F1FF3080F0878038
:100D30009C4240F28480A9F1020973441B1BADB2AE
:100D4000B3FBF8F008FB103345EA034400FB0AFA52
:100D5000A24508D91EEB040400F1FF336BD2A24573
:100D600069D90238744440EA0940A0FB0289A4EB27
:100D70000A044C45C2464B4654D351D0002E69D08C
:100D8000B1EB0A0564EB030404FA0CFCFD40FC40E3
:100D90004CEA0505C6E90054002747E7C2F12003E5
:100DA00020FA03F7954001FA02F021FA03F34FEA23
:100DB000154E3843010CB3FBFEF71FFA85F80EFB06
:100DC000173341EA034107FB08F38B4204FA02F4AC
:100DD00007D9691807F1FF3C2FD28B422DD9023F6A
:100DE0002944CB1A81B2B3FBFEF00EFB103341EA6B
:100DF000034100FB08F38B4207D9691800F1FF3C5F
:100E000017D28B4215D902382944C91A40EA07473C
:100E10003BE73746304609E70746E7E61846FBE674
:100E20004145ABD2B8EB020A69EB0E02013813461A
:100E3000A4E76046E9E7184695E76746D1E78146AB
:100E40007CE702382C4447E7ACF1020C2B442FE737
:100E5000384608E73746E9E6704700BF0000000063
:100E600001F0FF01102A2BDB10F0070F08D010F85B
:100E7000013B013A8B422DD010F0070F42B3F6D15F
:100E8000F0B441EA012141EA014122F007047FF078
:100E900000070023F0E80256083C85EA010586EACF
:100EA000010685FA47F5A3FA87F586FA47F6A5FA0B
:100EB00087F68EB9EED1F0BC01F0FF0102F0070217
:100EC00032B110F8013B013A83EA010313B1F8D1C2
:100ED0000020704701387047002D06BF35460338A3
:100EE000073815F0010F07D1013015F4807F02BFDC
:100EF000013015F4C03F0130F0BC0138704700BF2D
:100F000010B504460E4B18784FF47A73B3FBF0F328
:100F10000C4A1068B0FBF3F000F064FB68B90F2CCA
:100F200001D901200AE0002221464FF0FF3000F0F5
:100F300019FB034B5C60002000E0012010BD00BFE6
:100F4000000000203C00002008B50B4B1A6842F45A
:100F500000721A601A6842F480621A601A6842F4D9
:100F600080721A60032000F0EBFA0020FFF7C8FF40
:100F700008F0BCFB002008BD003C0240034A116899
:100F8000034B1B780B441360704700BF44070020DD
:100F900000000020014B1868704700BF4407002084
:100FA00038B50446FFF7F6FF0546B4F1FF3F02D01F
:100FB000044B1B781C44FFF7EDFF401BA042FAD303
:100FC00038BD00BF00000020494B5A6822F440326F
:100FD0005A605A6841680A435A600268536823F4A9
:100FE0008073536002685368016943EA01235360C8
:100FF0000268536823F04073536002685368816845
:101000000B4353600268936823F4006393600268A3
:101010009368C1680B439360826A364B9A4249D009
:101020000268936823F07063936002689368816A32
:101030000B4393600268936823F040539360026807
:101040009368C16A0B4393600268936823F00203BC
:10105000936002689368816943EA41039360036A7D
:10106000002B32D10268536823F400635360026896
:10107000D36A23F47003D3620168CB6AC269013A70
:1010800043EA0253CB620268936823F400739360CF
:1010900002689368016B43EA412393600268936896
:1010A00023F48063936002689368416943EA812373
:1010B000936070470268936823F0706393600268DE
:1010C000936823F040539360BEE70268536843F48B
:1010D000006353600268536823F4604353600168FF
:1010E0004B68426A013A43EA42334B60BFE700BFB4
:1010F000002301400100000F30B310B50446036C1B
:1011000043B1236C13F0100F0AD00120002384F8A0
:101110003C3010BD436480F83C3008F031FBF0E710
:10112000236C23F4885323F0020343F00203236467
:101130002046FFF749FF00206064236C23F003037F
:1011400043F001032364E1E70120704782B00023EC
:10115000019390F83C30012B6AD0012380F83C3099
:1011600003689A6812F0010F13D19A6842F00102E5
:101170009A60344B1B68344AA2FB03239B0C03EB9D
:101180004303019302E0019B013B0193019B002B70
:10119000F9D10268936813F0010F4BD0036C23F46C
:1011A000E06323F0010343F480730364536813F492
:1011B000806F05D0036C23F4405343F480530364E1
:1011C000036C13F4805F20D0436C23F00603436468
:1011D000002380F83C306FF02203136002685368EC
:1011E00043F0806343F020035360184B5B6813F0B7
:1011F0001F0F0DD103689A6812F0405F1DD19A68E5
:1012000042F080429A60002015E000234364DFE74B
:1012100003680F4A934201D000200CE09A6812F054
:10122000405F0CD19A6842F080429A60002002E050
:10123000022000E0002002B070470020FBE7002001
:10124000F9E700BF3C00002083DE1B430023014080
:10125000002001400368D86C70477047704738B56C
:10126000044602681168536811F0020F2FD003F092
:10127000200363B3036C13F0100F03D1036C43F42A
:1012800000730364936813F0405F19D1A369BBB97D
:10129000D36A13F4700F03D0936813F4806F0FD1E7
:1012A000536823F020035360236C23F4807323647A
:1012B000236C13F4805F03D1236C43F00103236498
:1012C000204607F0C5FC23686FF012021A602368FD
:1012D00019685A6802F0800211F0040F36D0002A13
:1012E00034D0226C12F0100F03D1226C42F4005261
:1012F00022649A6812F4401F21D19A6B12F4401FA5
:1013000003D09A6812F4806F19D15A6812F4806F72
:1013100015D19A6812F0405F11D1A2697AB95A6862
:1013200022F080025A60236C23F480532364236CE0
:1013300013F4807F03D1236C43F001032364204620
:1013400000F0FCF823686FF00C021A602268116844
:10135000536803F0400311F0010F04D01BB1136870
:1013600013F0010F09D122681168536803F08063FC
:1013700011F0200F00D063B938BD236C43F48033E3
:1013800023642046FFF769FF23686FF001021A60AB
:10139000E9E7636C43F0020363646FF020051560B6
:1013A0002046FFF75BFF23681D60E5E730B482B09D
:1013B0000023019390F83C30012B00F0B78001230B
:1013C00080F83C300B68092B3ED90568EA689BB26F
:1013D00003EB43031E3B072404FA03F322EA03034F
:1013E000EB600568EA688C680B8803EB43031E3BDF
:1013F00004FA03F31343EB604B68062B3AD80568F5
:101400006A6B03EB8303053B1F2404FA03F322EA10
:1014100003036B6305686A6B4B6803EB8303053B4F
:101420000C8804FA03F313436B630268404B9A423F
:1014300050D002683E4B9A4255D0002380F83C3091
:10144000184602B030BC704705682A699BB203EBAE
:101450004303072404FA03F322EA03032B6105681C
:101460002A698C680B8803EB430304FA03F31343E4
:101470002B61C1E70C2B16D805682A6B03EB83039D
:10148000233B1F2404FA03F322EA03032B630568BA
:101490002A6B4B6803EB8303233B0C8804FA03F3AA
:1014A00013432B63C1E70568EA6A03EB8303413BFF
:1014B0001F2404FA03F322EA0303EB620568EA6AD5
:1014C0004B6803EB8303413B0C8804FA03F313439B
:1014D000EB62AAE70B68122BABD1164A536843F4B0
:1014E00080035360A5E70B68103B012BA5D8114A78
:1014F000536843F4000353600B68102B9DD10E4BCF
:101500001B6802F1467202F52E3202F28332A2FB10
:1015100003239B0C03EB83035A00019202E0019B1F
:10152000013B0193019B002BF9D186E7022088E75C
:1015300000200140002301403C00002070470000D3
:10154000074AD36823F4E0631B041B0C000200F479
:10155000E060184340F0BF6040F40030D060704756
:1015600000ED00E030B4174BDB68C3F30223C3F196
:101570000704042C28BF04241D1D062D18D9033B85
:101580004FF0FF3505FA04F421EA0401994005FA09
:1015900003F322EA0303194300280BDB0901C9B254
:1015A00000F1604000F5614080F8001330BC7047E6
:1015B0000023E5E700F00F000901C9B2024B1954FE
:1015C000F4E700BF00ED00E014ED00E000F01F02C2
:1015D000400901239340024A42F82030704700BF7F
:1015E00000E100E00138B0F1807F0AD2064B58607C
:1015F000064AF02182F823100020986007221A6022
:1016000070470120704700BF10E000E000ED00E0EF
:10161000042805D0054A136823F0040313607047BB
:10162000024A136843F004031360704710E000E0BF
:10163000704708B5FFF7FCFF08BD70B110B5044650
:10164000037933B102232371002020610123237128
:1016500010BD437108F0C0F8F4E7012070474379EA
:10166000012B31D010B401234371022202710468AE
:1016700022688B4013432360B1B902681168136874
:1016800003F0380311F0040F01D0382B07D00123E9
:1016900003710023437118465DF8044B704753688B
:1016A00043F001035360F2E702681168136803F422
:1016B000601311F4802FEAD0B3F5601FE7D15368AF
:1016C00043F002035360E2E7022070474379012BA5
:1016D0001FD070B401254571022303710668336879
:1016E00040F6FE74944023EA04040B6849680B43F7
:1016F00093402343336004682368C02101FA02F257
:1017000023EA02022260057100234371184670BC6F
:1017100070470220704710B483B000240194006821
:10172000019051B101990A4414320192019A136057
:10173000002003B05DF8044B704701990A44083259
:101740000192F3E730B405682C6824F480242C60FF
:10175000046863608368402B05D003689960036860
:10176000DA6030BC704703689A600368D960F8E7B4
:101770000268D3B2103B0B49A1FB03131B090A49B2
:10178000C95CC165032B06D822F47F7222F00302E4
:101790008265806D704722F47F7222F0030204326A
:1017A0008265F6E7ABAAAAAA58CE0008836A8269C6
:1017B00092B9012B0AD01BB1022B01D00020704737
:1017C000C36A13F0807F2CD100207047C36AB3F145
:1017D000C07F28D000207047B2F5005F05D0022BF3
:1017E00029D9032B15D000207047032B03D8DFE83D
:1017F00003F01C041C0A00207047C36A13F0807FAA
:1018000015D100207047C36AB3F1C07F11D000200A
:101810007047C36A13F0807F01D001207047002019
:101820007047012070470120704701207047012058
:1018300070470120704701207047000070B50446D2
:10184000FFF7A8FB002C5BD00546002384F834305A
:10185000022384F835302268136823F001031360F3
:1018600023681A6812F0010F0AD0FFF793FB401BA0
:101870000528F5D920236365032084F8350070BD61
:101880001A68204810406168A2680A43E1680A4368
:1018900021690A4361690A43A1690A43E1690A436C
:1018A000216A0A430243616A04291ED01A6026682D
:1018B000756925F00705636A1D43042B07D1A36AE8
:1018C0001D43E36A1BB12046FFF770FF90B97561B5
:1018D0002046FFF74DFFE26D3F23934083600020D9
:1018E0006065012384F83530C9E7E16A206B014364
:1018F0000A43DBE740236365012084F83500BEE737
:101900000120BCE73F8010F038B5856D90F8344079
:10191000012C31D0012480F8344090F83540E4B2F5
:10192000012C04D0002380F83430022038BD044656
:10193000022084F83500002060652046FFF702FF92
:10194000E26D3F239340AB602268136843F01603B7
:1019500013602268536943F080035361236C23B101
:101960002268136843F0080313602268136843F089
:10197000010313600020D9E70220D7E790F8353043
:10198000DBB2022B03D0802343650120704705237F
:1019900080F835300268136823F0010313600020DB
:1019A00070470000F0B583B0044600230193724BEA
:1019B0001D68724BA3FB0535AD0A876D3E68C26D8D
:1019C00008239340334210D003681A6812F0040FC2
:1019D0000BD01A6822F004021A60C26D08239340EB
:1019E000BB60436D43F001034365E26D0123934007
:1019F000334209D02268526912F0800F04D0BB60D4
:101A0000636D43F002036365E26D04239340334248
:101A100009D02268126812F0020F04D0BB60636D17
:101A200043F004036365E26D10239340334224D0F6
:101A30002268126812F0080F1FD0BB6023681A6872
:101A400012F4802F0DD01B6813F4002F04D1236CE7
:101A50009BB12046984710E0A36C73B1204698478D
:101A60000BE01A6812F4807F03D11A6822F0080292
:101A70001A60236C0BB120469847E26D20239340F7
:101A8000334255D02268126812F0100F50D0BB605C
:101A900094F83530DBB2052B0ED023681A6812F4A7
:101AA000802F33D01B6813F4002F2AD1636C002BD6
:101AB0003ED0204698473BE02268136823F0160387
:101AC00013602268536923F080035361236CA3B130
:101AD0002268136823F008031360E26D3F239340EC
:101AE000BB60002384F83430012384F83530236D43
:101AF000002B3FD0204698473CE0A36C002BE7D159
:101B0000EBE7E36BA3B12046984711E01A6812F4A3
:101B1000807F09D11A6822F010021A60002384F82D
:101B20003430012384F83530E36B0BB120469847FD
:101B3000636DFBB1636D13F0010F17D0052384F8BB
:101B400035302268136823F001031360019B0133D1
:101B50000193AB4204D823681B6813F0010FF5D141
:101B6000002384F83430012384F83530E36C0BB162
:101B70002046984703B0F0BD3C000020B5814E1BC5
:101B80005079137943EA002307480B50D0789378B3
:101B90001B0443EA0063507843EA0023127813439E
:101BA000024A8B50704700BF408002404480024090
:101BB000016841F218028B5843F400538B50704770
:101BC000016841F218028B5823F400538B50704780
:101BD000016841F218028B5843F002038B507047A2
:101BE000016841F218028B5823F002038B507047B2
:101BF00082B0084B1B68084AA2FB03235B0A00FB68
:101C000003F0019000BF019B5A1E0192002BF9D1F5
:101C100002B070473C000020D34D621010B582B076
:101C20000446002301930268136843F0080313601D
:101C300003681B6801930120FFF7DAFF2368019A0C
:101C40001A6002B010BD10B582B0044600230193A3
:101C50000268136843F00403136003681B68019370
:101C60000120FFF7C5FF2368019A1A6002B010BD7A
:101C700030B583B0054600230193026841F2180491
:101C8000135943F48013135103681B590193012026
:101C9000FFF7AEFF2B68019A1A5103B030BD10B5A3
:101CA00082B00446002301930268136823F0040302
:101CB000136003681B6801930120FFF799FF2368F5
:101CC000019A1A6002B010BD10B582B0044600231C
:101CD00001930268136823F00803136003681B680C
:101CE00001930120FFF784FF2368019A1A6002B074
:101CF00010BD000070B59EB0044629B14FF40063DA
:101D0000C3604FF480438360E369002B6AD14FF4D2
:101D10008063079321680B68394A1A40A368E0681A
:101D200003430798034343F4007313430B60236892
:101D30001D680120FFF734F923681D6023684022E5
:101D40005A6023685D680120FFF72AF923685D6007
:101D5000236800259D602368DD602268936923F075
:101D6000BE031B041B0C43F08003936123689E6930
:101D70000120FFF715F923689E612368DD61236860
:101D8000DD690120FFF70CF92368DD61226841F26B
:101D9000180551591B4B0B4043F0087343F00403E3
:101DA000535123685E590120FFF7FAF823685E510A
:101DB000236803F58053144A1A60236803F580539F
:101DC0001D680120FFF7ECF8236803F580531D60C0
:101DD000A369012B09D0626900212046FFF7D0FEDC
:101DE0001EB070BD0023079394E7216841F21C02E6
:101DF0008B5843F4803343F040038B50EBE700BF34
:101E00000F8120FF233FDEF88020C102F0B490F85C
:101E10004540012C31D0012480F84540022480F84F
:101E20004440C162002401E0F96001349C4217D2B1
:101E300065014F194FF480164E5140F2F45606FBDF
:101E40000426BE60C6691EB94E5946F440064E517E
:101E50005D1EA542E8D9651C01EB4515FD60E4E770
:101E6000026841F21003D150012380F8443000236E
:101E700080F845301846F0BC70470220FBE7F0B40C
:101E800090F84540012C2ED0012480F845400224D2
:101E900080F844408162002401E0E96001349C4202
:101EA00014D266018D194FF000478F5144F2F45659
:101EB0006E6040F2F45606FB0426AE605E1EA6423B
:101EC000EBD9661C01EB4616EE60E7E7026841F2CB
:101ED0000C03D150012380F84430002380F84530B2
:101EE0001846F0BC70470220FBE7000090F8453030
:101EF000012B00F08580012380F84530022380F813
:101F00004430B1B1C36A1A68002A1ADB30B440F217
:101F1000F45291421DD93B4AA2FB0142920A40F27F
:101F2000F45404FB121404B10132012A11D000232D
:101F300047E0012380F84430002280F8452018460D
:101F40007047122380F84430002380F84530012088
:101F500070471A6842F040521A60C36AC1F30C011C
:101F60005960C26A136843F000431360C36ADB68B8
:101F7000C362036841F214029A5812F0040F08D0A9
:101F800041F2140204219950026841F20403002135
:101F9000D150012380F84430002380F845301846A2
:101FA00030BC7047C56A2C6844F080542C6011E046
:101FB000C56A2C6844F000442C60C46AE468C462BA
:101FC00001339A42D5D9C56A2C6824F040542C605C
:101FD000002BE7D0C46A40F2F4556560541E9C4261
:101FE000E6D1C56A2C6844F000542C60064C04FB12
:101FF000021404F2F454C56AC4F30C046C60D7E70D
:10200000022070470BB002AC0CFAFFFF90F845308D
:10201000012B40D0012380F84530022380F8443062
:10202000836A1A68002A28DB1A6812F4807F19D0A4
:10203000826B01328263012A12D043631A68C2F3B1
:102040000D42043AC263026B92680264DB688362E9
:10205000012380F84430002380F84530184670474B
:102060000363EAE71A6812F4007F0ED003630022CC
:10207000426301228263DB688362012380F844307B
:10208000002280F8452018467047826B0132826337
:10209000DB688362F1E70220704770477047704742
:1020A00010B50446036841F214029A5812F0400F2A
:1020B00011D141F214029B5813F0010F19D122687B
:1020C00041F214034FF48031D1502268D35813F4F5
:1020D000004F1BD110BDFFF7E1FF226841F214034E
:1020E0004021D150012384F84430002384F8453046
:1020F000E5E7FFF7D2FF2168012341F214028B507C
:1021000084F84430002384F84530D8E72046FFF7B0
:10211000C6FF226841F214034FF40041D15001235D
:1021200084F84430002384F84530D3E7F8B590F8BC
:102130004430DBB2822B33D016460546822380F82A
:1021400044300268136903F01C03048AE402A4B259
:1021500023438C0104F4F8641C4344F0010414612B
:10216000FEF718FF074614F0010F10D0FEF712FF1C
:10217000C01BB0F5803F02D22B681C69F3E7012336
:1021800085F84430002385F84530032007E02B68AC
:102190005B699BB23360012385F844300020F8BDB1
:1021A0000220FCE790F84430DBB2422B32D070B50D
:1021B0000546422380F844300068036903F01C039D
:1021C0002C8AE402A4B223438C0104F4F8641C4377
:1021D00044F0030492B242612B681C61FEF7DAFE00
:1021E000064614F0010F10D0FEF7D4FE801BB0F5A8
:1021F000803F02D22B681C69F3E7012385F8443045
:10220000002385F84530032003E0012385F844309E
:10221000002070BD0220704770B582B0002301938A
:10222000002800F00E81044690F84430002B34D092
:1022300000230093844B5A6C42F480425A645B6CD6
:1022400003F480430093009B804B5A6822F4000201
:102250005A605A68216A0A435A60236803F580531A
:102260001A6842F001021A60FEF794FE05462368E0
:1022700003F58052126812F0010F13D0FEF78AFEA8
:10228000401BB0F5FA7FF2D9032584F844500023AF
:1022900084F84530284602B070BD80F8453006F01D
:1022A0008DF9C5E71D6925F01C0502F09BFA684B06
:1022B0000344684A934255D845F0080523681D61D8
:1022C0004FF4004200212046FFF76CFF054600282E
:1022D00060D1FF20FEF764FE6368002B00F0918060
:1022E000FEF758FE064601AA01212046FFF71EFF11
:1022F000FEF750FE801B41F28833984252D8019B72
:1023000013F0040FEFD04FF4805200212046FFF766
:1023100049FF002852D1FEF73DFE064601AA0121E1
:102320002046FFF703FFFEF735FE801B41F288339E
:1023300098424BD8019B13F0200FEFD001AA102137
:102340002046FFF7F3FE00284CD1019B13F0040F49
:1023500050D04FF40062E26013F0020F4DD0002322
:10236000A3605EE03C4B03443C4A934202D845F0F4
:102370000C05A3E73A4B03443A4A93429ED93A4BA1
:1023800003443A4A934202D845F0040596E745F0E3
:10239000100593E701212046FFF7ACFC012584F8E6
:1023A000445077E701212046FFF7A4FC012384F87D
:1023B0004430002384F8453003256BE70121204693
:1023C000FFF798FC012584F8445063E7012120467B
:1023D000FFF790FC012384F84430002384F8453053
:1023E000032557E701212046FFF784FC012584F8E7
:1023F00044504FE70022E260AEE74FF48043A36011
:102400000FE0E268C2F3CF02A368C3F34F031A439D
:1024100000212046FFF7C6FE58B940F6FF70FEF7D0
:10242000BFFD00212046FFF765FC012384F84430FE
:1024300030E701212046FFF75DFC012584F8445078
:1024400028E7012526E700BF003802400038014098
:1024500000D3CEFEBFE1E40040F1E9FD3F787D010D
:1024600000796CFCFF596202001F0AFA7FF0FA0241
:1024700038B590F84530012B1AD00446012580F874
:102480004550022380F84430FFF7C8FB2046FFF791
:10249000DAFB2046FFF7ECFB2046FFF789FB2046DE
:1024A000FFF796FB84F84450002084F8450038BDBF
:1024B0000220FCE738B590F84530012B1AD00446CD
:1024C000012580F84550022380F84430FFF778FB5F
:1024D0002046FFF785FB2046FFF7E1FB2046FFF78C
:1024E000C7FB2046FFF7F0FB84F84450002084F837
:1024F000450038BD0220FCE790F84530012B00F084
:102500008E8070B50C460546012380F845300223C5
:1025100080F84430002971D002681368414919409D
:10252000236860680343A0680343E0680343A86826
:1025300003432069034360690343E8680343A069D8
:102540000343E0690343206A0343606A0343A06ACC
:1025500003430B4313602B681E680120FEF720FD28
:102560002B681E60E36A226B1343626B1343A26BFA
:102570001343E26B1343226C1343626C1343A16C4D
:102580002A680B4353602B685E680120FEF708FD44
:102590002B685E602B68E26C9A602B68226DDA60B3
:1025A00029688A6922F0BE021204120C606DA36DC4
:1025B00043EA0043E06D0343206E0343606E034330
:1025C000A06E034313438B612B689E690120FEF7C5
:1025D000E7FC2B689E61E36E216F2A680B43D36191
:1025E0002B68DC690120FEF7DBFC2B68DC61012332
:1025F00085F84430002085F8450070BD01680A6800
:1026000022F490428368C068034313430B602B6835
:102610001C680120FEF7C4FC2B681C60E7E7022061
:10262000704700BF0F8120FF00230F2B00F2D780DF
:10263000F0B482B039E0072200E00022B2403A4311
:102640000234674E46F82420664A1468EA4302EAD8
:1026500004064F6817F4803F01D045EA0406614C38
:102660002660646802EA04064F6817F4003F01D050
:1026700045EA04065B4C6660A46802EA04064F68FB
:1026800017F4801F01D045EA0406564CA660E468A2
:1026900022404E6816F4001F01D045EA0402514C56
:1026A000E26001330F2B00F2978001229A400C6800
:1026B00004EA0205AA42F4D14C68022C01D0122C83
:1026C00010D1DE08083650F826C003F00704A70032
:1026D0000F24BC402CEA040C0C69BC4044EA0C04F6
:1026E00040F8264004685F000326BE40F64306EA31
:1026F000040C4C6804F00304BC4044EA0C0404607D
:102700004C6804F1FF3CBCF1010F03D9112C01D03E
:10271000122C10D1846806EA040CCC68BC4044EA50
:102720000C048460446824EA02024C68C4F3001478
:102730009C4014434460C26816408A68BA403243E1
:10274000C2604A6812F0805FABD000220192264A34
:10275000546C44F480445464526C02F480420192FC
:10276000019A9C08A61C1E4A52F8267003F0030228
:1027700096000F22B24027EA02071C4A90423FF41B
:102780005CAF02F5806290421AD002F580629042FE
:1027900018D002F58062904216D002F58062904215
:1027A00014D002F58062904212D002F5806290420D
:1027B00010D002F5806290423FF43DAF08223DE721
:1027C00001223BE7022239E7032237E7042235E7FB
:1027D000052233E7062231E702B0F0BC70477047AC
:1027E00000380140003C0140003802400000024037
:1027F00000230F2B00F28580F0B509E0072500E0EB
:10280000002505FA02F2A24262D001330F2B77D8DD
:1028100001229A4002EA0106B242F6D105685F0041
:102820000324BC40E443254005604FEAD30C0CF17F
:10283000080C50F82CE003F00705AD000F2707FA4D
:1028400005F52EEA050540F82C5085682540856081
:10285000456825EA02024260C2681440C4604FEA3B
:10286000930C0CF10204274A52F8244003F00302AF
:10287000920097403C40244DA842C1D005F58065A8
:10288000A84219D005F58065A84217D005F58065E6
:10289000A84215D005F58065A84213D005F58065DE
:1028A000A84211D005F58065A8420FD005F58065D6
:1028B000A842A3D00825A4E70125A2E70225A0E7A6
:1028C00003259EE704259CE705259AE7062598E75A
:1028D0000C4D0CF1020255F8224024EA070745F896
:1028E00022700A4C2568F243154025606568154042
:1028F0006560A5681540A560E5682A40E26084E748
:10290000F0BD70470038014000000240003C01402B
:102910000369194201D1002070470120704712B9A4
:102920000904816170478161704790F83E30DBB2E5
:10293000402B13D00369B3F5804F1ED0036D002BDD
:102940002DD0036D012B33D1436CC3F3C813026840
:1029500003F0060343F0F103136129E0036D2BB983
:10296000436C026803F0FE03136121E0436C0268CC
:1029700043F00103DBB213611AE090F83D30DBB2A3
:10298000212B06D0436C026843F00103DBB21361D4
:102990000EE0436C026803F0FE03136108E0436C31
:1029A000C3F3C813026803F0060343F0F003136196
:1029B00000207047436C0268DBB21361002070474F
:1029C00010B48BB090F83E30DAB2C16A046B90F864
:1029D0003D30DBB2222B0CD00023099303685A69E7
:1029E00009929B690993099B00200BB05DF8044B89
:1029F0007047036D0BB9402A17D0036D1BB90369EB
:102A0000B3F5404F19D0438D9BB2002B25D10293D3
:102A100003685A6902929A690292029A1A6842F409
:102A200000721A6000230365DEE7009303685A69A9
:102A300000929B690093009BD6E7002301930368F3
:102A40005A6901929A690192019A1A6842F4807255
:102A50001A60036D01330365C6E7438D9BB2012BFA
:102A60001AD0438D9BB2022B6BD00268136843F4DB
:102A70008063136003685A6812F4006F03D05A68C9
:102A800042F480525A600023089303685A690892FE
:102A90009B690893089BC5E711F5803F16D0042970
:102AA0003DD008293BD0122C39D0C36A022B30D03C
:102AB0000268136823F4806313600023059303689E
:102AC0005A6905929B690593059BABE702681368F9
:102AD00023F48063136003685A6812F4006F0CD00B
:102AE0001A6822F480621A600023039303685A690B
:102AF00003929B690393039B94E7002204925A6913
:102B000004929A690492049A1A6842F400721A6054
:102B100088E70268136843F480631360CDE70268B6
:102B2000136823F4806313600023069303685A69D3
:102B300006929A690692069A1A6842F400721A601E
:102B400070E7C36A022B1BD00268136823F480630A
:102B500013600268136843F40063136003685A68E3
:102B600012F4006F03D05A6842F480525A60002376
:102B7000079303685A6907929B690793079B51E77C
:102B80000268136843F480631360E7E7438D9BB2E8
:102B90004BB1436A5A1C426202681B781361438D31
:102BA000013B9BB2438500207047438D9BB24BB1E4
:102BB00003681A69436A591C41621A70438D013BCC
:102BC0009BB243850020704703685A6912F4806FF6
:102BD0000DD06FF480625A61042303640023036301
:102BE000202280F83D2080F83C30012070470020F2
:102BF0007047F8B506460C4617461D461EE02DB137
:102C0000FEF7C8F9069BC01AA84217D90023336300
:102C1000202286F83D2086F83E3086F83C3003209E
:102C20001AE033685B6924EA03039BB2B3FA83F3C7
:102C30005B099F420FD1B5F1FF3FE0D1C4F30743D9
:102C4000012BEED033689B6924EA03039BB2B3FAED
:102C500083F35B09EDE70020F8BDF8B504460D46A7
:102C600016461F4632E01A6842F400721A60236862
:102C70006FF480625A6104232364002323632022BB
:102C800084F83D2084F83C3001202DE026B1FEF789
:102C900081F9C01BB04219D900232363202284F894
:102CA0003D2084F83C3003201EE023685B6925EA60
:102CB00003039BB2003318BF0123A3B123685A69F1
:102CC00012F4806FCFD1B6F1FF3FDFD1C5F30743D8
:102CD000012BEAD023689B6925EA03039BB20033EA
:102CE00018BF0123E9E70020F8BD0000F0B583B06C
:102CF00004460D4616461F46C36A042B0DD0012B11
:102D00000BD013F5803F08D0036B122B0AD1026859
:102D1000136843F48073136004E02268136843F47B
:102D2000807313600097334600224FF00111204654
:102D3000FFF75FFF58BB2369B3F5804F10D12368BD
:102D400005F0FE051D613B46324615492046FFF75A
:102D500084FF0346E0B1236C042B1ED1012317E04E
:102D6000EB11226803F0060343F0F00313613B46C6
:102D700032460C492046FFF770FF20B1236C042B2C
:102D800009D1012304E02368EDB21D61DBE70323D1
:102D9000184603B0F0BD0323FAE70323F8E700BFAA
:102DA000020001000800010070B504460D461646F9
:102DB00023685B6913F0800F19D12046FFF704FFE9
:102DC000B8B9B5F1FF3FF3D025B1FEF7E3F8801BAA
:102DD000A842EDD9236C43F020032364002323632E
:102DE000202284F83D2084F83C30032000E00020BD
:102DF00070BD0120FCE770B504460D4616462368F9
:102E00005B6913F0040F19D12046FFF7DDFEB8B956
:102E1000B5F1FF3FF3D025B1FEF7BCF8801BA84207
:102E2000EDD9236C43F02003236400232363202285
:102E300084F83D2084F83C30032000E0002070BD81
:102E40000120FCE7002800F0828010B5044690F8CD
:102E50003D30002B41D0242384F83D302268136894
:102E600023F00103136001F0C3FC3A4BA3FB0023E2
:102E70009B0C226853606168374A914232D8013313
:102E8000226813626368344A934235D85B00B0FB12
:102E9000F3F0C0F30B03032B00D804202368D861A0
:102EA000E369216A22680B4313602369E1682268A1
:102EB0000B4393606369A16922680B43D360226866
:102EC000136843F00103136000202064202384F87A
:102ED0003D30206384F83E0010BD80F83C3006F0A1
:102EE0009FFCB8E74FF4967202FB03F31B4AA2FB68
:102EF00003239B090133C3E7A16889B903EB4302AC
:102F0000B0FBF2F2C2F30B02B2FA82F25209E2B95A
:102F100091B903EB4303B0FBF3F040F40040BDE78D
:102F200003EB830202EB8202B0FBF2F2C2F30B026C
:102F3000B2FA82F25209EAE703EB830303EB83035D
:102F4000B0FBF3F040F44040A8E70120A6E70120E1
:102F5000704700BF83DE1B43A0860100D34D621083
:102F60002DE9F04184B004460E4690461F46FEF718
:102F700011F894F83D30DBB2202B04D00226304605
:102F800004B0BDE8F08105460090192301225449A0
:102F90002046FFF72EFE002840F0998094F83C3040
:102FA000012B00F09680012384F83C3023681A68D6
:102FB00012F0010F03D11A6842F001021A60226870
:102FC000136823F400631360212384F83D30102339
:102FD00084F83E3000232364C4F824806785A3F579
:102FE0008033E362638D23852B460A9A314620465F
:102FF000FFF77CFE064660B1236C042B04D100234E
:1030000084F83C300126BAE7002384F83C300326DC
:10301000B5E70023039323685A6903929B690393DE
:10302000039B10E0236C042B55D12268136843F4F2
:10303000007313600126A2E72A460A992046FFF78B
:10304000DAFE00282BD1238D002B32D02A460A9994
:103050002046FFF7A9FE0028E4D1636A5A1C626289
:1030600022681B781361638D013B9BB26385238DBE
:10307000013B9BB223852268516911F0040FDBD01C
:10308000002BD9D0636A591C61621B781361638D70
:10309000013B9BB26385238D013B2385CCE7236CE9
:1030A000042B1AD12268136843F4007313600126BD
:1030B00065E72268136843F400731360202384F8E3
:1030C0003D30002384F83E3084F83C3057E7022638
:1030D00055E7022653E7032651E703264FE700BFD3
:1030E0000200100070477047704708B590F83D30F7
:1030F000DAB2438D9BB273B1436A591C41620168D5
:103100001B780B61438D013B9BB24385438D9BB282
:103110000BB9292A01D0002008BD0268536823F4A6
:103120008063536021230363282380F83D30FFF739
:10313000DBFFF0E7704790F83D30DAB2438D9BB289
:10314000F3B110B503681969436A5C1C44621970D5
:10315000438D013B9BB24385438D9BB20BB92A2A19
:1031600001D0002010BD0268536823F480635360CF
:1031700022230363282380F83D30FFF7DBFFF0E7CD
:1031800000207047704708B503689A6912F0040F71
:1031900009D000219B6913F0800F06D0028BFFF746
:1031A000F1FF002008BD0121F4E78289F7E77047AD
:1031B00008B590F83D30DBB2C26A042A01D0082A73
:1031C00001D1282B07D0212B1FD003686FF4806218
:1031D0005A61002008BD1A4BC3620268536823F489
:1031E000E063536003686FF480625A610268136899
:1031F00023F48063136000230363202280F83D20C2
:1032000080F83E30FFF7D3FFE3E70D4BC362212385
:103210000363202380F83D30002380F83E300268AD
:10322000536823F4E063536003686FF480625A616B
:103230000268136823F480631360FFF755FFC8E743
:103240000000FFFF704710B590F83D30DBB290F8FA
:103250003E20D2B2C46A018D09B9212B05D0212BA1
:103260003CD0402A38D0002010BD042C04D0082CBB
:1032700002D014F5803F19D10268536823F4E0634B
:1032800053600268136843F4007313600023036300
:10329000202380F83D3090F83E30DBB2402B15D033
:1032A000002380F83E30FFF71DFFDCE7026853681B
:1032B00023F4E063536011230363002380F83E305E
:1032C000202380F83D30FFF70DFFCCE7002380F886
:1032D0003E30FFF7B7FFC6E7222BC4D1438D9BB228
:1032E0007BB190F83E30DBB2402B10D0436A5A1CC1
:1032F000426202681B781361438D013B9BB2438598
:10330000B1E70268536823F480635360ABE7036D51
:103310009BB9C36C012B08D0836CC3F307230268ED
:103320001361036D013303659DE7836C0268DBB2B3
:103330001361036D0233036595E7036D012B17D00D
:10334000036D022B8FD190F83D30DBB2222B17D0CA
:1033500090F83D30DBB2212B85D1436A5A1C426282
:1033600002681B781361438D013B9BB243857AE76A
:10337000836C0268DBB21361036D0133036572E78E
:103380000268136843F4807313606CE708B5C26A7F
:1033900090F83D30DBB2212B01D0002008BD438DD9
:1033A0009BB203BB042A04D0082A02D012F5803F46
:1033B00024D10268536823F4E06353600268136801
:1033C00043F40073136000230363202380F83D302F
:1033D00090F83E30DBB2402B20D0002380F83E3006
:1033E000FFF780FED9E7436A5A1C426202681B78E5
:1033F0001361438D013B9BB24385CEE7026853685E
:1034000023F4E063536011230363002380F83E300C
:10341000202380F83D30FFF765FEBEE7002380F8EB
:103420003E30FFF70FFFB8E7704708B590F83D3022
:10343000DBB2222B01D0002008BD438D9BB2032BB1
:1034400013D903681A69436A591C41621A70438D83
:10345000013B9BB24385438D9BB2032BEBD10268AA
:10346000536823F480635360E5E7012BE3D80268D7
:10347000136823F4806313600268536823F4E063E5
:10348000536003681A69436A591C41621A70438D7C
:10349000013B9BB24385202380F83D30002303632A
:1034A00090F83E30DBB2402B05D0002380F83E3050
:1034B000FFF719FEBFE7002380F83E30FFF7B4FFA7
:1034C000B9E708B5C26A438D9BB2042B13D0438D74
:1034D0009BB2032B1FD0438D9BB2022B30D00368CD
:1034E0001A69436A591C41621A70438D013B9BB2B1
:1034F0004385002008BD0268536823F4806353604D
:1035000003681A69436A591C41621A70438D013B72
:103510009BB24385EDE70268536823F480635360F0
:103520000268136823F48063136003681A69436AAE
:10353000591C41621A70438D013B9BB24385D8E709
:10354000013A012A2DD90268136843F4007313600D
:1035500003681A69436A591C41621A70438D013B22
:103560009BB2438503681A69436A591C41621A7009
:10357000438D013B9BB243850268536823F440733B
:103580005360202380F83D300023036390F83E30E1
:10359000DBB2402B10D0002380F83E30FFF7A3FDB4
:1035A000A7E70268136823F4806313600268136856
:1035B00043F480731360CBE7002380F83E30FFF7BD
:1035C00033FF96E77047704710B5044690F83D30DA
:1035D000293B012B37D990F83D30DBB2602B07D067
:1035E00003685B6813F4006F02D1202380F83D303C
:1035F0000023236384F83E302268136823F40063B9
:10360000136023685A6812F4006F3FD05A6822F49E
:1036100000625A60626B92F83530DBB2012B18D031
:103620003A4B1365606BFEF7A9F900283FD022687A
:10363000136823F001031360202384F83D30606B8E
:10364000036D984733E000230363282380F83D305F
:10365000D2E7A36B2D4A1A65A06BFEF78FF930B342
:1036600023685A6912F0400F04D01A69636A591C22
:1036700061621A702268136823F00103136020232B
:1036800084F83D30A06B036D984710E094F83D201E
:10369000D2B2602A11D05A6912F0400F04D01A69D0
:1036A000636A591C61621A702046FFF78BFF94F819
:1036B0003D30DBB2282B17D010BD202284F83D20EE
:1036C000002222645A6912F0400F04D01A69636A1A
:1036D000591C61621A702268136823F00103136099
:1036E0002046FFF770FFE2E7236C13F0040FE3D0EE
:1036F000074BE36200232363202284F83D2084F8F3
:103700003E302046FFF753FDD6E700BF513A000890
:103710000000FFFF10B582B090F83D30DBB20168C9
:103720004A6822F4E0624A6000220192026851690C
:103730000191116841F001011160019A01680A6864
:1037400022F480620A6001684A6812F4006F14D0A3
:1037500090F83D20D2B2222A0AD090F83D20D2B271
:103760002A2A05D0426B1268526892B2428504E060
:10377000826B1268526892B24285428D92B2F2B167
:103780004A6912F0040F08D00969426A541C446265
:103790001170428D013A92B242850268516911F06E
:1037A000400F08D01169426A541C44621170428D66
:1037B000013A92B24285026C42F004020264026C49
:1037C000A2B9282B15D02A2B13D0292B11D0026B8C
:1037D000222A01D0222B17D100230363202280F854
:1037E0003D2080F83E30FFF7A5FC0DE0FFF7ECFE32
:1037F0000AE0074BC36200230363202280F83D20C8
:1038000080F83E30FFF7D3FC002002B010BD00BFAF
:103810000000FFFFF8B5054603689F695C695E68B4
:1038200090F83E30DBB2102B25D0402B23D04C4BF0
:10383000234013B116F4007F6ED14A4B234013B1DD
:1038400016F4007F6BD1484B3B40002B6FD0474BA9
:10385000234033B116F4806F03D0454B2340002B37
:1038600061D0434B234053B316F4007F27D0284642
:10387000FFF78CF923E014F0011F02D016F4007F4B
:103880001ED13C4B234013B116F4007F1CD1344BA6
:10389000234013B116F4007F1AD1334B3B401BB3C6
:1038A000324B23402BB116F4806F02D0304B2340B3
:1038B00093B12F4B234013B116F4007F10D1F8BD04
:1038C0002846FFF732F8E8E72846FFF773F8E4E701
:1038D0002846FFF775F8E0E72846FFF7B4FCEEE767
:1038E0002846FFF753FDEAE7234B23402BB116F49C
:1038F000806F02D01E4B234053B11D4B2340002B41
:10390000DDD016F4007FDAD02846FFF7DAFDD6E7DF
:103910002846FFF78AFDD2E7FFF735FCCFE72846B8
:10392000FFF7F8FECBE72846FFF7DFFBC7E7124BB0
:1039300023402BB116F4806F02D00D4B234053B1BE
:103940000B4B2340002BBAD016F4007FB7D028468B
:10395000FFF72BF9B3E72846FFF7EDFBAFE700BF12
:1039600002000100100001000400100080000100AE
:1039700004000100080001004000010070B5044689
:1039800003685D695E68314A154209D016F4807F8C
:1039900006D0026C42F0010202646FF480725A6138
:1039A00015F4813F0AD016F4807F07D0236C43F0D2
:1039B0000203236423686FF400725A6115F4823F96
:1039C0001AD016F4807F17D094F83E30DBB2628DA7
:1039D00091B294F83D20D2B2206B202B1DD0236CE5
:1039E00043F00403236494F83E30DBB2102B22D062
:1039F00023686FF480625A6115F4843F0AD016F48C
:103A0000807F07D0236C43F00803236423686FF49E
:103A100000625A61236CA3B970BD0029DFD1212A4D
:103A200005D0292A03D0282AD9D12128D7D1204648
:103A3000FFF7BEFBE0E72268136843F400731360EE
:103A4000D6E72046FFF7C0FDE6E700BF0001010012
:103A500008B5806B0268136823F480631360002349
:103A60004385426B1365826B136590F83D30DBB282
:103A7000602B0DD0202380F83D30002380F83E30AD
:103A80000268136823F001031360FFF79BFD08BD74
:103A9000202380F83D30002380F83E300364026824
:103AA000136823F001031360FFF78DFDEFE70000BB
:103AB00000295BD010B582B00C46002A58D090F88F
:103AC0004130DBB2012B56D1C1620368DB6903F0E0
:103AD0000703032B04D0052B02D00286428603E0A5
:103AE00053009BB20386438690F84030DBB2012B33
:103AF00043D0012380F84030042380F84130002374
:103B00004364C36B1E4A1A64C36B1E4ADA63C36BF9
:103B10001D4ADA640168CB6903F44073B3F5407F52
:103B20001CD022460446038E0C31C06BFDF7ECFE20
:103B30002368DA6912F4806F03D1DA6942F4806293
:103B4000DA6123685A6812F0010F03D15A6842F013
:103B500001025A60002084F840000AE0002301932B
:103B6000CB6801938B680193019BDAE701207047D2
:103B7000012002B010BD0220FBE70220F9E700BFE0
:103B8000CF3B0008113C0008A93E000808B5436B74
:103B9000984708BD704708B5436A9A1C426202689C
:103BA0001B88D360438D013B9BB24385438D9BB201
:103BB00003B108BD0268536823F0A0031B041B0C6B
:103BC0005360012380F84130FFF7E4FFF1E708B5C7
:103BD000806B04F0BFFA08BD08B50368DA68C36AF1
:103BE000991CC1621A80438E013B9BB24386438E6F
:103BF0009BB203B108BD0268536823F060031B0445
:103C00001B0C5360012380F8413004F09FFAF1E768
:103C100008B5836B0268126812F4807F09D11968B5
:103C20004A6822F001024A6000225A86012283F883
:103C30004120184604F08AFA08BD0000002800F070
:103C4000BB8070B50446022580F841505B4B43634E
:103C500005F020FE2268D36923F47B6323F00F0371
:103C6000D36123681D622368DD696369022B5BD021
:103C7000E368002B3ED02026A368202B00D87600D6
:103C8000012000F07FFE2369B3F5007F34D0B0FB44
:103C9000F6F000EB800043006269B3FBF2F30533FA
:103CA000474AA2FB0323DB0803F001029B1AC3F37C
:103CB0004F0311029A1EFD2A38D822690A4321684F
:103CC00013430B626268A168E068238B03439BB2D5
:103CD0000B439BB213439BB243F400631D43236821
:103CE000DD61236A012B2AD000206064012384F85F
:103CF000413070BD1026BFE7E36853B1B600B0FB9A
:103D0000F6F000EB800043006269B3FBF2F3053389
:103D1000C6E7F600B0FBF6F000EB800043006269F6
:103D2000B3FBF2F30533BBE70021C3E7636C43F059
:103D300010036364204604F0EDFA0120D9E7214B1B
:103D400063632268204B9A421ED04FF04022D36911
:103D500023F47B6323F00F03D36122681A4B9A424A
:103D600014D04FF0402302221A622268164B9A4266
:103D70000FD04FF04022D0696168B1F5007F0AD0C2
:103D8000C1B94FF4807608E0104AE0E7A3F58063FC
:103D9000E9E70E4AEFE74FF48076A168E568238BE8
:103DA0002B439BB20B439BB2334343F40063034367
:103DB000D36199E70026F0E701207047D13D000864
:103DC000CDCCCCCC15400008003800400034004079
:103DD00010B584B0044602689368039390F84130AC
:103DE000DBB2042B06D094F84130DBB2032B2ED08B
:103DF00004B010BD039B13F0010F03D0536813F000
:103E0000400F21D1039B13F0400FECD023685A6878
:103E100012F0200FE7D05A6822F060021204120C50
:103E20005A60002301932368DA6801929B6801932A
:103E3000019B012384F84130636C43F00203636407
:103E4000204604F067FACEE7FFF7C6FEDAE7039BE9
:103E500013F0020F04D023685B6813F0800F1FD1AA
:103E6000039B13F0080FC3D023685A6812F0200F89
:103E7000BED05A6822F0A0021204120C5A6000232D
:103E8000029323689B680293029B012384F84130CC
:103E9000636C43F004036364204604F03BFAA7E735
:103EA0002046FFF778FEDBE708B5806B02685368B1
:103EB00023F003035360002343854386012380F8E6
:103EC0004130436C43F00803436404F023FA08BD17
:103ED0007047000008B5E9B9436A9A1C426202685B
:103EE0001B88D360438D013B9BB24385438D9BB2BE
:103EF0004BB90268536823F0A0031B041B0C5360EA
:103F0000438E9BB203B108BD012380F84130FFF717
:103F1000DFFFF8E7436A9A1C42621A880168134B74
:103F200099421ED04FF04023DA60438D013B9BB293
:103F30004385438D9BB2002BE5D102680B4B9A421F
:103F400012D04FF04022536823F0A0035360438EF9
:103F50009BB2002BD7D1012380F84130FFF7B8FF87
:103F6000D1E7A3F58063DFE7014AECE700380040C2
:103F70000034004008B5E9B90368DA68C36A991CDF
:103F8000C1621A80438E013B9BB24386438E9BB233
:103F90004BB90268536823F060031B041B0C536089
:103FA000438D9BB203B108BD012380F84130FFF778
:103FB0008FFFF8E70268154B9A4222D04FF040235A
:103FC000DA68C36A991CC1621A80438E013B9BB2B6
:103FD0004386438E9BB2002BE5D102680B4B9A427D
:103FE00012D04FF04022536823F060035360438D9A
:103FF0009BB2002BD7D1012380F84130FFF768FF37
:10400000D1E7A3F58063DBE7014AECE70038004025
:104010000034004010B584B0044603689A680392E7
:104020007C4A93425DD04FF040218A680292DA695F
:1040300002F44072B2F5007F04D0DA6912F4407FD6
:1040400040F08180039A12F0020F03D05B6813F0F6
:10405000800F48D1029B13F0010F09D022686D4BED
:104060009A4245D04FF040235B6813F0400F42D195
:10407000029B13F0400F09D02268664B9A423FD052
:104080004FF040235A6812F0200F3CD1039B13F0ED
:10409000080F24D023685A6812F0200F1FD05A68E6
:1040A00022F0A0021204120C5A602268594B9A4264
:1040B00047D04FF04022536823F060035360002341
:1040C000019323689B680193019B012384F841308D
:1040D000636C43F004036364204604F01BF904B0EE
:1040E00010BD4D49A1E700212046FFF7F3FEB1E7DF
:1040F000A3F58063B8E701212046FFF73BFFB7E750
:10410000A3F58063BEE75A6822F060025A60226815
:10411000536823F0A0031B041B0C5360002300937F
:104120002368DA6800929B680093009B012384F85F
:104130004130636C43F002036364204604F0EAF804
:10414000A4E7354AB7E7029B13F0020F03D04B6890
:1041500013F0800F4FD1039B13F0010F04D023689D
:104160005B6813F0400F4BD1039B13F0400F1ED040
:1041700023685A6812F0200F19D05A6822F06002A2
:104180001204120C5A602268224B9A423DD04FF022
:104190004022536823F0A0035360012384F8413088
:1041A000636C43F002036364204604F0B3F8029B9F
:1041B00013F0080F93D02268164B9A4227D04FF085
:1041C00040235A6812F0200F89D05A6822F0A002CA
:1041D0005A602268536823F060031B041B0C536071
:1041E000012384F84130636C43F004036364204688
:1041F00004F090F873E701212046FFF76BFEAAE771
:1042000000212046FFF7B6FEAEE7034AC1E7A3F55B
:104210008063D6E70038004000340040002800F0FA
:10422000BB8170B582B00446036813F0010F3BD028
:10423000A74B9B6803F00C03042B2CD0A44B9B686A
:1042400003F00C03082B21D06368B3F5803F4FD0F7
:10425000B3F5A02F52D09E4B1A6822F480321A6018
:104260001A6822F480221A606368002B50D0FCF791
:1042700091FE0546964B1B6813F4003F14D1FCF7E2
:1042800089FE401B6428F5D903208AE1904B5B68C6
:1042900013F4800FD8D08E4B1B6813F4003F03D06B
:1042A0006368002B00F07A81236813F0020F55D069
:1042B000874B9B6813F00C0F3ED0854B9B6803F037
:1042C0000C03082B33D0E368002B68D0814B01220C
:1042D0001A60FCF75FFE05467D4B1B6813F0020F6A
:1042E00054D1FCF757FE401B0228F5D9032058E1B2
:1042F000774A136843F480331360B5E7744B1A6848
:1043000042F480221A601A6842F480321A60ABE7E5
:10431000FCF740FE05466E4B1B6813F4003FC3D00C
:10432000FCF738FE401B6428F5D9032039E1684BBF
:104330005B6813F4800FC6D1654B1B6813F0020F46
:1043400004D0E368012B01D001202AE1604A136800
:1043500023F0F803216943EAC1031360236813F0D3
:10436000080F40D0636963B35B4B01221A60FCF70E
:1043700011FE0546564B5B6F13F0020F33D1FCF76D
:1043800009FE401B0228F5D903200AE1504A1368B0
:1043900023F0F803216943EAC1031360DEE74D4BC4
:1043A00000221A60FCF7F6FD0546494B1B6813F026
:1043B000020FD3D0FCF7EEFD401B0228F5D90320F5
:1043C000EFE0454B00221A60FCF7E4FD0546404B48
:1043D0005B6F13F0020F06D0FCF7DCFD401B0228D8
:1043E000F5D90320DDE0236813F0040F79D0384BB2
:1043F0001B6C13F0805F33D100230193344B1A6C94
:1044000042F080521A641B6C03F080530193019BAD
:104410000125324B1B6813F4807F23D0A368012B46
:1044200034D0052B38D02A4B1A6F22F001021A67BC
:104430001A6F22F004021A67A368002B36D0FCF72B
:10444000A9FD0646224B1B6F13F0020F48D1FCF763
:10445000A1FD801B41F288339842F3D90320A0E0EC
:104460000025D6E71D4A136843F480731360FCF7F8
:1044700091FD0646194B1B6813F4807FCED1FCF7E3
:1044800089FD801B0228F5D903208AE0104A136FAA
:1044900043F001031367CFE70D4B1A6F42F004029C
:1044A0001A671A6F42F001021A67C5E7FCF772FD3E
:1044B0000646074B1B6F13F0020F11D0FCF76AFD85
:1044C000801B41F288339842F3D9032069E000BF92
:1044D0000038024000004742800E47420070004012
:1044E000E5B9A369002B5BD0304A926802F00C0258
:1044F000082A58D0022B17D02D4B00221A60FCF747
:1045000049FD0446294B1B6813F0007F42D0FCF79D
:1045100041FD001B0228F5D9032042E0234A136C19
:1045200023F080531364DCE7214B00221A60FCF770
:1045300031FD05461D4B1B6813F0007F06D0FCF7CC
:1045400029FD401B0228F5D903202AE0E369226AED
:104550001343626A43EA8213A26A5208013A43EAA9
:104560000243E26A43EA0263104A5360104B01229D
:104570001A60FCF70FFD04460C4B1B6813F0007F1C
:1045800006D1FCF707FD001B0228F5D9032008E03F
:10459000002006E0002004E001207047012000E038
:1045A000002002B070BD0120FBE700BF00380240D0
:1045B00060004742324B9B6803F00C03042B5CD035
:1045C000082B01D02F4870472DE9F04B2C4B5A682F
:1045D00002F03F025B6813F4800F2BD0284B5B681E
:1045E000C3F388131E4600275C010025E41A65EB1F
:1045F0000705A90141EA9461A001001B61EB0501D7
:10460000CB0043EA5073C400A01943EB07014B02EF
:1046100043EAD0534402204619460023FCF79EFA91
:10462000174B5B68C3F3014301335B00B0FBF3F04E
:10463000BDE8F08B124B5B68C3F388131E4600275E
:104640005C010025E41A65EB0705A90141EA9461C4
:10465000A001001B61EB0501CB0043EA5073C400CD
:10466000A01943EB07018B0243EA905384022046D2
:1046700019460023FCF772FAD2E70348704700BFDF
:10468000003802400024F40000127A00002800F0F4
:104690009D8070B504464F4B1B6803F00F038B429F
:1046A00009D2CBB24B4A1370136803F00F038B424D
:1046B00001D0012070BD236813F0020F17D013F052
:1046C000040F04D0444A936843F4E0539360236892
:1046D00013F0080F04D0404A936843F4604393609A
:1046E0003D4A936823F0F003A068034393600D46AE
:1046F000236813F0010F32D06368012B21D09A1E7A
:10470000012A25D9344A126812F0020F60D03249CA
:104710008A6822F0030213438B60FCF73BFC0646D9
:104720002D4B9B6803F00C036268B3EB820F16D02D
:10473000FCF730FC801B41F288339842F0D903200B
:10474000B8E7254A126812F4003FE0D10120B1E732
:10475000214A126812F0007FD9D10120AAE71D4B2F
:104760001B6803F00F03AB4209D9EAB2194B1A7068
:104770001B6803F00F03AB4201D001209AE72368C6
:1047800013F0040F06D0144A936823F4E053E16851
:104790000B439360236813F0080F07D00E4A936809
:1047A00023F46043216943EAC1039360FFF702FFEA
:1047B000094B9B68C3F30313084AD35CD840084BEA
:1047C00018600020FCF79CFB002073E70120704775
:1047D00001206FE7003C024000380240E8CE0008AC
:1047E0003C000020014B1868704700BF3C000020CF
:1047F00008B5FFF7F7FF044B9B68C3F38223034A16
:10480000D35CD84008BD00BF00380240F8CE000895
:1048100008B5FFF7E7FF044B9B68C3F34233034A35
:10482000D35CD84008BD00BF00380240F8CE000875
:1048300030B583B00446036813F0050F06D1236832
:1048400013F0020F2ED1002003B030BD494B0022DF
:104850001A60FCF79FFB0546474B1B6813F0006F7F
:1048600006D0FCF797FB401B0228F5D90320EBE7A5
:104870006268A3681B0743EA82133F4AC2F8843088
:104880003C4B01221A60FCF785FB05463A4B1B683E
:1048900013F0006FD3D1FCF77DFB401B0228F5D944
:1048A0000320D1E700230193334B1A6C42F080526E
:1048B0001A641B6C03F080530193019B2F4A136809
:1048C00043F480731360FCF765FB05462B4B1B68B4
:1048D00013F4807F06D1FCF75DFB401B0228F5D95D
:1048E0000320B1E7244B1B6F13F4407312D0E2682E
:1048F00002F440729A420DD01F4B1A6F22F440729C
:104900001F4901200860002008601A671B6F13F020
:10491000010F13D1E36803F44072B2F5407F1ED05B
:10492000154A936823F4F813936013490B6FE268F8
:10493000C2F30B0213430B67002085E7FCF72AFB49
:1049400005460D4B1B6F13F0020FE3D1FCF722FB62
:10495000401B41F288339842F3D9032074E706499B
:104960008A6822F4F81223F0704323F4407313434F
:104970008B60DAE768004742003802400070004070
:10498000400E474201282AD1174B9B6813F40003BD
:1049900003D0012B25D115487047134B5B6813F4E6
:1049A000800F14D0104B5B6803F03F031048B0FB3E
:1049B000F3F00D4AD2F88430C3F3881300FB03F000
:1049C000D2F88430C3F30273B0FBF3F07047064BA8
:1049D0005B6803F03F030748B0FBF3F0E9E7002012
:1049E00070470020704700BF003802400080BB00C5
:1049F00000127A000024F40010B4036A046A24F060
:104A000001040462846924F0F00444EA021223F0F1
:104A10000A030B43826103625DF8044B704710B4D4
:104A2000036A23F0100303628469036A24F4704468
:104A300044EA023223F0A00343EA011382610362D5
:104A40005DF8044B7047836823F0700341F0070161
:104A500019438160704710B4846824F47F4442EAAB
:104A600003230B43234383605DF8044B70470268C4
:104A7000D36843F00103D3600268136843F0010375
:104A800013600020704790F83830012B7DD010B5AE
:104A90000446012380F83830022380F83930026858
:104AA000936823F47F4323F0770393600B68402BD4
:104AB00057D010D9702B3ED01FD8502B47D0602B29
:104AC00032D1CA6849680068FFF7A9FF60212068F1
:104AD000FFF7B9FF28E0102B4DD008D9202B4FD07D
:104AE000302B21D130210068FFF7ADFF1CE0DBB98E
:104AF00000210068FFF7A7FF16E0B3F5805F0ED036
:104B0000B3F5005F10D1CB684A6889680068FFF789
:104B1000A2FF2268936843F48043936004E0026834
:104B2000936823F007039360012384F83930002051
:104B300084F8380010BDCB684A6889680068FFF7C0
:104B40008AFF2268936843F077039360ECE7CA68B2
:104B500049680068FFF750FF50212068FFF773FF96
:104B6000E2E7CA6849680068FFF746FF402120680D
:104B7000FFF769FFD8E710210068FFF764FFD3E76C
:104B800020210068FFF75FFFCEE7022070477047E3
:104B900070477047704710B5044603681A6912F0F1
:104BA000020F11D0DA6812F0020F0DD06FF002027E
:104BB0001A610123037603689B6913F0030F70D019
:104BC000FFF7E6FF0023237623681A6912F0040F2B
:104BD00012D0DA6812F0040F0ED06FF004021A61DE
:104BE0000223237623689B6913F4407F5FD020461D
:104BF000FFF7CEFF0023237623681A6912F0080F0F
:104C000012D0DA6812F0080F0ED06FF008021A61A5
:104C1000042323762368DB6913F0030F4ED020466C
:104C2000FFF7B6FF0023237623681A6912F0100FEE
:104C300012D0DA6812F0100F0ED06FF010021A6165
:104C4000082323762368DB6913F4407F3DD0204698
:104C5000FFF79EFF0023237623681A6912F0010FE5
:104C600003D0DA6812F0010F36D123681A6912F006
:104C7000800F03D0DA6812F0800F34D123681A69EC
:104C800012F0400F03D0DA6812F0400F32D12368DF
:104C90001A6912F0200F03D0DA6812F0200F30D119
:104CA00010BDFFF774FF2046FFF773FF8AE7204629
:104CB000FFF76DFF2046FFF76CFF9BE72046FFF7ED
:104CC00066FF2046FFF765FFACE72046FFF75FFF72
:104CD0002046FFF75EFFBDE76FF001021A61204634
:104CE00004F01EF9C1E76FF080021A61204600F05F
:104CF000B2F8C3E76FF040021A612046FFF74AFF9F
:104D0000C5E76FF020021A61204600F0A3F8C7E75C
:104D100003682E4A904212D0B0F1804F0FD0A2F516
:104D20007C4290420BD002F58062904207D002F59F
:104D30008062904203D002F57842904203D123F082
:104D400070034A681343214A90422AD0B0F1804F41
:104D500027D0A2F57C42904223D002F58062904297
:104D60001FD002F5806290421BD002F5784290423B
:104D700017D002F57052904213D002F58062904233
:104D80000FD002F5806290420BD0A2F5983290428B
:104D900007D002F58062904203D002F58062904213
:104DA00003D123F44073CA68134303608B68C36262
:104DB0000B688362054B984203D003F580639842E9
:104DC00001D10B6903630123436170470000014077
:104DD000A8B110B5044690F839305BB1022384F8CD
:104DE0003930211D2068FFF793FF012384F8393003
:104DF000002010BD80F8383004F0BAFDEEE7012045
:104E0000704790F83830012B22D030B4012280F85E
:104E10003820022380F839300468636823F0700377
:104E20006360046863680D682B4363600468A3686B
:104E300023F08003A3600468A36849680B43A36060
:104E400080F83920002380F83830184630BC70478D
:104E500002207047704770470268D36823F490734C
:104E6000D3600268536923F001035361202380F863
:104E70003A30704790F83930DBB2212B2AD1836861
:104E8000B3F5805F16D0036A5A1C02621A78036871
:104E90005A60C38C013B9BB2C384EBB90268D368F0
:104EA00023F08003D3600268D36843F04003D360EB
:104EB00000207047036A1B880268C3F3080353602D
:104EC00003691BB9036A02330362E2E7036A013331
:104ED0000362DEE702207047002070472DE9F843A7
:104EE000044601680A6922F44052C36813430B6107
:104EF0000168CA6822F4164222F00C028368006935
:104F0000034360690343E06903431343CB602168B3
:104F10004A6922F44072A36913434B61E369B3F514
:104F2000004F60D02368B84A934200F0148102F524
:104F30008062934200F00F81FFF75AFC00EB800083
:104F400000EB80006568AD00B0FBF5F5AF4FA7FB47
:104F500005356D092E01FFF74BFC00EB800000EBDF
:104F600080006568AD00B0FBF5F9FFF741FC00EB90
:104F7000800000EB80006568AD00B0FBF5F5A7FB95
:104F800005356D094FF0640808FB15952D01323584
:104F9000A7FB05356D0905F0F0053544FFF728FC42
:104FA00000EB800000EB80006668B600B0FBF6F610
:104FB000FFF71EFC00EB800000EB800063689B00A5
:104FC000B0FBF3F0A7FB0030400908FB10684FEA84
:104FD000081808F13208A7FB0837C7F343172368FE
:104FE0002F449F600DE12368874A93425BD002F50E
:104FF0008062934257D0FFF7FBFB00EB800000EB91
:10500000800065686D00B0FBF5F5804FA7FB0535A6
:105010006D092E01FFF7ECFB00EB800000EB800038
:1050200065686D00B0FBF5F9FFF7E2FB00EB80006F
:1050300000EB800065686D00B0FBF5F5A7FB05355A
:105040006D094FF0640808FB1595ED003235A7FB9C
:1050500005356D096D0005F4F8753544FFF7C8FB9B
:1050600000EB800000EB800066687600B0FBF6F68F
:10507000FFF7BEFB00EB800000EB800063685B0085
:10508000B0FBF3F3A7FB03235B0908FB13684FEAAC
:10509000C80808F13208A7FB0837C7F3421723688E
:1050A0002F449F60ADE0FFF7B3FB00EB800000EB07
:1050B000800065686D00B0FBF5F5544FA7FB053522
:1050C0006D092E01FFF7A4FB00EB800000EB8000D0
:1050D00065686D00B0FBF5F9FFF79AFB00EB800007
:1050E00000EB800065686D00B0FBF5F5A7FB0535AA
:1050F0006D094FF0640808FB1595ED003235A7FBEC
:1051000005356D096D0005F4F8753544FFF780FB32
:1051100000EB800000EB800066687600B0FBF6F6DE
:10512000FFF776FB00EB800000EB800063685B001C
:10513000B0FBF3F3A7FB03235B0908FB13684FEAFB
:10514000C80808F13208A7FB0837C7F342172368DD
:105150002F449F6055E0FFF75BFB00EB800000EB06
:1051600080006568AD00B0FBF5F5284FA7FB05355D
:105170006D092E01FFF74CFB00EB800000EB800077
:105180006568AD00B0FBF5F9FFF742FB00EB80006E
:1051900000EB80006568AD00B0FBF5F5A7FB0535B9
:1051A0006D094FF0640808FB15952D013235A7FBFA
:1051B00005356D0905F0F0053544FFF729FB00EBD7
:1051C000800000EB80006668B600B0FBF6F6FFF7E3
:1051D0001FFB00EB800000EB800063689B00B0FBCE
:1051E000F3F0A7FB0030400908FB10684FEA0818ED
:1051F00008F13208A7FB0837C7F3431723682F4489
:105200009F60BDE8F88300BF001001401F85EB518F
:1052100058B310B5044690F839300BB3242384F802
:1052200039302268D36823F40053D3602046FFF757
:1052300055FE2268136923F4904313612268536971
:1052400023F02A0353612268D36843F40053D360E8
:105250000020E063202384F8393084F83A3010BD10
:1052600080F8383004F0D6FBD8E70120704770474B
:1052700008B50168CB6823F04003CB60202380F899
:105280003930FFF7F4FF002008BD704708B590F8EB
:105290003A30DBB2222B40D18368B3F5805F0ED069
:1052A000036903BB03685A68836A591C81621A70D8
:1052B000C38D013B9BB2C385F3B100202EE0826A0F
:1052C000036943B903685B68C3F308031380836A07
:1052D00002338362ECE703685B68DBB21380836AA6
:1052E00001338362E4E703685B68826A511C816270
:1052F00003F07F031370DBE70268D36823F4907335
:10530000D3600268536923F001035361202380F8BE
:105310003A30FFF7BAFF002000E0022008BD7047D6
:1053200010B5044602681368D168526913F00F0083
:1053300005D113F0200F02D011F0200F53D1002817
:1053400067D012F0010202D111F4907F61D013F006
:10535000010F06D011F4807F03D0E06B40F0010014
:10536000E06313F0040F04D01AB1E06B40F00200C8
:10537000E06313F0020F04D01AB1E06B40F00400B8
:10538000E06313F0080F04D01AB1E26B42F0080298
:10539000E263E26B002A48D013F0200F02D011F034
:1053A000200F24D123685B6903F04003E26B12F005
:1053B000080F00D13BB32046FFF74EFD23685A6922
:1053C00012F0400F1BD05A6922F040025A61636B01
:1053D0008BB11A4A1A65606BFCF7D0FA28B3606B80
:1053E000036D984721E02046FFF750FF1DE020465F
:1053F000FFF74CFFD6E72046FFF791FF15E0204668
:10540000FFF78DFF11E02046FFF789FF0023E363DC
:105410000BE013F0800F02D011F0800F06D113F0D3
:10542000400F02D011F0400F04D110BD2046FFF70D
:1054300021FDFAE72046FFF71BFFF6E7415400087D
:1054400008B5806B0023C385C384FFF768FF08BDE0
:1054500040BA80B2704708B500F076F800F048FA1C
:1054600000F09BFA01F022F800F0ACFF08BD00004C
:1054700010B504462D4B1B68834231D82B4B5B681B
:10548000A34235D92379002B3AD12388B3F5C86FCD
:105490003ED8264B1B6821885A1894420FD01079A9
:1054A00068B922484068904209D0204880689042FC
:1054B00036D05A5A2280E01A5A5A1A4450806188CB
:1054C0005A1894420BD0107948B918488068A04205
:1054D00029D020885852D21A21880B445A8010BDF6
:1054E000134B40F25D121349134806F087FDC5E7E0
:1054F0000F4B4FF4AF7211490F4806F07FFDC1E723
:105500000B4B40F25F120E490B4806F077FDBCE7EB
:10551000074B4FF4B1720B49074806F06FFDB8E72F
:10552000024A9460C5E701488260D2E7C0040020C7
:1055300038CF000868CF000880CF0008A8CF000847
:10554000C4CF0008E0CF000810B40B4B23F00303D6
:105550000A4A13604FF4C8601880002159801971FD
:105560001918516001240C71A3F84006488093601B
:105570005DF8044B704700BF63070020C0040020A3
:1055800000283DD038B5044610F0030F28D11D4B3C
:105590001B68A34203D81B4B5B68A34206D81A4B77
:1055A00040F2AF1219491A4806F028FD154B1B6846
:1055B000A34214D8134B5B68A34210D9A4F1080589
:1055C00014F8043CA3B1002304F8043C0D4B9B6881
:1055D000AB4201D90B4B9D602846FFF749FF38BD10
:1055E000094B4FF4D6720B49094806F007FDCEE788
:1055F000054B4FF4E0720849054806F0FFFCE2E76E
:10560000704700BFC004002038CF000830D0000829
:1056100080CF00080CD0000848D00008F8B5054637
:10562000CC1CA4B224F00304A4B20B2C04D9B4F50E
:10563000C86F02D9002543E00C24384B1B68AB42ED
:1056400003D8364B5B68AB4206D8354B4FF4FA7241
:105650003449354806F0D2FC304B1B68AB422FD89A
:105660002E4A5268AA422BD9A5F10807FF1ABFB2E9
:1056700035F8086CF61BB6B2083EB6B2B44221D873
:10568000B44249D81CD0254B1A6835F8083CD118CB
:10569000087918BBD05AE3199BB208339BB21F4C50
:1056A000A4688C4216D0D11800240C71D0524F80BF
:1056B00025F8083CD15AB1F5C86F01D00A4453808F
:1056C0002846F8BD164B40F206221849164806F047
:1056D00095FCD5E7D118114CA160E4E704F114035F
:1056E000B342EDD8E3199BB208339BB2D1180B48F3
:1056F0008068884201D9094881600020087135F826
:10570000080CD0524F8025F8083CD15AB1F5C86F2B
:10571000D6D00A445380D3E70025D1E7C004002047
:1057200038CF00085CD0000880CF000874D0000893
:10573000002800F083800246033292B222F0030276
:1057400092B20B2A04D9B2F5C86F02D90020704773
:105750000C22F8B53A4B1E689B689B1B9BB244E039
:1057600001232371364B9B68A34210D02544083592
:10577000334B5B689D421FD814F0030524D15DBBF9
:1057800004F1080059E02E4A12681B8813441A7964
:105790001AB12B4949689942F5D129498B6049686A
:1057A0009942E3D0002AE1D0264B40F2CF2226498D
:1057B000264806F023FCD9E7224B4FF435722449E2
:1057C000224806F01BFCD7E71E4B40F2D6222149A7
:1057D0001E4806F013FCD2E71A4B4FF436721E49EE
:1057E0001A4806F00BFCCBE723881F461546C2F586
:1057F000C860834220D2F41820790028F4D1F15AED
:10580000C91B0839A942EFD305F114008142A7D37F
:105810001A4492B2083292B2B1180020087120885E
:10582000B0524B80228001232371B35AB3F5C86F65
:1058300098D01E44728095E70020F8BD0020704784
:10584000C004002038CF000894D0000880CF0008A2
:10585000B0D00008E0D0000810D1000810B583686F
:105860001C6874B122681A6014F0030F01D120463D
:1058700010BD054B40F249120449054806F0BEFB35
:10588000F5E70024F3E700BF34D1000864D1000835
:1058900080CF000838B505460C4611F0030F05D13E
:1058A000AB681B682360AB681C6038BD034B40F2DB
:1058B0009D120349034806F0A1FBF1E734D100082B
:1058C00088D1000880CF0008836800221A604368EE
:1058D000033323F0030307E08168096819608168D6
:1058E0000B6001880B44013241889142F4DC70471F
:1058F00010B5002406E0054B53F82400FFF7E4FF41
:105900000134A4B2052CF6D910BD00BF60CE00084A
:1059100008B5052805D8074B53F82000FFF79EFF70
:1059200008BD054B40F287120449054806F066FBA6
:105930000020F5E760CE000834D10008BCD1000893
:1059400080CF000808B5052806D821B1064B53F8CA
:105950002000FFF79FFF08BD044B40F2DB12044913
:10596000044806F04BFBF6E760CE000834D100088F
:10597000DCD1000880CF000811F0010F0CD008B571
:10598000436823B190F8333013F0080F00D108BDFD
:10599000011D01F0C3F9FAE77047704730B583B0D5
:1059A0000D46B9B10A6801924268019991420FD03F
:1059B000044601A9043000F047FF7DB12B68636005
:1059C00001212046FFF7D8FFE3690BB12046984735
:1059D00003B030BD024A12680192E5E70023EEE70A
:1059E000D4CE000811B10B68C36070470023FBE7F9
:1059F00011B10B68836070470023FBE7F8B50446DC
:105A000017461E460D4609B10B6863B92946204664
:105A1000FFF7C4FF39462046FFF7EAFF314620462C
:105A2000FFF7E0FFF8BD1146FFF7E2FF31462046E1
:105A3000FFF7D8FF29462046FFF7B0FFF2E7000046
:105A40002DE9F04104460E4617469846079D25B3BA
:105A500000236360A360E36084F83330032284F89A
:105A60002820E3612362069B6362104A1378591C65
:105A7000117084F83630089B236143463A4631461C
:105A80002046FFF7BBFF2046A84768B9084B1A68B5
:105A900022601C602046BDE8F081064BFB220649CF
:105AA000064806F0ABFAD3E70020F4E7E404002050
:105AB00034370020F8D100082CD2000880CF00082D
:105AC000014B1860704700BF3837002090F8333022
:105AD00013F0010F13D110B5044643F0010380F811
