:020000040800F2
:100000000000022035780008E5760008E776000851
:10001000E9760008EB760008ED76000800000000A5
:10002000000000000000000000000000EF76000863
:10003000F176000800000000F3760008F57600086D
:10004000857800088578000885780008857800089C
:10005000857800088578000885780008857800088C
:10006000857800088578000885780008857800087C
:10007000857800088578000885780008857800086C
:1000800085780008857800080177000885780008E1
:10009000857800088578000885780008857800084C
:1000A000857800088578000885780008857800083C
:1000B0001177000821770008857800088578000806
:1000C000857800088578000885780008857800081C
:1000D000857800088578000885780008857800080C
:1000E00085780008857800088578000885780008FC
:1000F00085780008857800088578000885780008EC
:1001000085780008857800088578000885780008DB
:1001100085780008857800088578000885780008CB
:1001200085780008857800088578000885780008BB
:100130008578000831770008857800088578000800
:10014000857800088578000885780008857800089B
:10015000857800088578000885780008857800088B
:10016000857800088578000885780008857800087B
:100170008578000885780008857800080000000070
:0801800085780008857800086D
:1001900010B5054C237833B9044B13B10448AFF3C1
:1001A00000800123237010BD7400002000000000B7
:1001B000C48A000808B5034B1BB103490348AFF3D9
:1001C000008008BD0000000078000020C48A0008FC
:1001D00053B94AB9002908BF00281CBF4FF0FF31AE
:1001E0004FF0FF3000F072B9ADF1080C6DE904CEAC
:1001F00000F006F8DDF804E0DDE9022304B0704702
:100200002DE9F047089E04468846002B4BD18A42D0
:10021000154667D9B2FA82F24AB1C2F1200701FA53
:1002200002F320FA07F7954047EA030894404FEAA3
:10023000154E230CB8FBFEF71FFA85FC0EFB178842
:1002400043EA084307FB0CF1994209D9EB1807F17F
:10025000FF3080F01B81994240F21881023F2B440D
:100260005B1AA4B2B3FBFEF00EFB103344EA034466
:1002700000FB0CFCA44509D92C1900F1FF3380F0D8
:100280000781A44540F2048102382C4440EA07402B
:10029000A4EB0C0400271EB1D4400023C6E90043A0
:1002A0003946BDE8F0878B4209D9002E00F0EB807B
:1002B0000027C6E9000138463946BDE8F087B3FAA1
:1002C00083F7002F47D18B4202D3824200F2FA809B
:1002D000841A61EB030301209846002EE0D0C6E9A2
:1002E0000048DDE702B9FFDEB2FA82F2002A40F0F0
:1002F0008F80491B4FEA154E1FFA85F80127B1FB85
:10030000FEFC230C0EFB1C1143EA014308FB0CF11D
:10031000994207D9EB180CF1FF3002D2994200F252
:10032000CD808446591AA3B2B1FBFEF00EFB101427
:1003300043EA044408FB00F8A04507D92C1900F152
:10034000FF3302D2A04500F2B6801846A4EB0804A1
:1003500040EA0C409FE7C7F1200CBB4022FA0CFE9C
:100360004EEA030E01FA07F420FA0CF521FA0CF319
:100370004FEA1E482543B3FBF8F92C0C08FB193350
:100380001FFA8EFA44EA034309FB0AF49C4202FA7C
:1003900007F200FA07F10BD91EEB030309F1FF3056
:1003A00080F087809C4240F28480A9F10209734466
:1003B0001B1BADB2B3FBF8F008FB103345EA034456
:1003C00000FB0AFAA24508D91EEB040400F1FF3332
:1003D0006BD2A24569D90238744440EA0940A0FBB7
:1003E0000289A4EB0A044C45C2464B4654D351D073
:1003F000002E69D0B1EB0A0564EB030404FA0CFC8F
:10040000FD40FC404CEA0505C6E90054002747E7DB
:10041000C2F1200320FA03F7954001FA02F021FA15
:1004200003F34FEA154E3843010CB3FBFEF71FFAF6
:1004300085F80EFB173341EA034107FB08F38B42B3
:1004400004FA02F407D9691807F1FF3C2FD28B4256
:100450002DD9023F2944CB1A81B2B3FBFEF00EFB2B
:10046000103341EA034100FB08F38B4207D96918B6
:1004700000F1FF3C17D28B4215D902382944C91A22
:1004800040EA07473BE73746304609E70746E7E6D5
:100490001846FBE64145ABD2B8EB020A69EB0E0207
:1004A00001381346A4E76046E9E7184695E7674632
:1004B000D1E781467CE702382C4447E7ACF1020CD7
:1004C0002B442FE7384608E73746E9E6704700BF78
:1004D000034613F8012B002AFBD1181A0138704784
:1004E00001F0FF01102A2BDB10F0070F08D010F8E5
:1004F000013B013A8B422DD010F0070F42B3F6D1E9
:10050000F0B441EA012141EA014122F007047FF001
:1005100000070023F0E80256083C85EA010586EA58
:10052000010685FA47F5A3FA87F586FA47F6A5FA94
:1005300087F68EB9EED1F0BC01F0FF0102F00702A0
:1005400032B110F8013B013A83EA010313B1F8D14B
:100550000020704701387047002D06BF354603382C
:10056000073815F0010F07D1013015F4807F02BF65
:10057000013015F4C03F0130F0BC0138704700BFB6
:1005800010B504460E4B18784FF47A73B3FBF0F3B2
:100590000C4A1068B0FBF3F000F064FB68B90F2C54
:1005A00001D901200AE0002221464FF0FF3000F07F
:1005B00019FB034B5C60002000E0012010BD00BF70
:1005C000000000200C00002008B50B4B1A6842F414
:1005D00000721A601A6842F480621A601A6842F463
:1005E00080721A60032000F0EBFA0020FFF7C8FFCA
:1005F00006F012FF002008BD003C0240034A1168CB
:10060000034B1B780B441360704700BFE8010020C8
:1006100000000020014B1868704700BFE80100206F
:1006200038B50446FFF7F6FF0546B4F1FF3F02D0A8
:10063000044B1B781C44FFF7EDFF401BA042FAD38C
:1006400038BD00BF00000020494B5A6822F44032F8
:100650005A605A6841680A435A600268536823F432
:100660008073536002685368016943EA0123536051
:100670000268536823F040735360026853688168CE
:100680000B4353600268936823F40063936002682D
:100690009368C1680B439360826A364B9A4249D093
:1006A0000268936823F07063936002689368816ABC
:1006B0000B4393600268936823F040539360026891
:1006C0009368C16A0B4393600268936823F0020346
:1006D000936002689368816943EA41039360036A07
:1006E000002B32D10268536823F400635360026820
:1006F000D36A23F47003D3620168CB6AC269013AFA
:1007000043EA0253CB620268936823F40073936058
:1007100002689368016B43EA41239360026893681F
:1007200023F48063936002689368416943EA8123FC
:10073000936070470268936823F070639360026867
:10074000936823F040539360BEE70268536843F414
:10075000006353600268536823F460435360016888
:100760004B68426A013A43EA42334B60BFE700BF3D
:10077000002301400100000F30B310B50446036CA4
:1007800043B1236C13F0100F0AD00120002384F82A
:100790003C3010BD436480F83C3006F087FEF0E743
:1007A000236C23F4885323F0020343F002032364F1
:1007B0002046FFF749FF00206064236C23F0030309
:1007C00043F001032364E1E70120704782B0002376
:1007D000019390F83C30012B6AD0012380F83C3023
:1007E00003689A6812F0010F13D19A6842F001026F
:1007F0009A60344B1B68344AA2FB03239B0C03EB27
:100800004303019302E0019B013B0193019B002BF9
:10081000F9D10268936813F0010F4BD0036C23F4F5
:10082000E06323F0010343F480730364536813F41B
:10083000806F05D0036C23F4405343F4805303646A
:10084000036C13F4805F20D0436C23F006034364F1
:10085000002380F83C306FF0220313600268536875
:1008600043F0806343F020035360184B5B6813F040
:100870001F0F0DD103689A6812F0405F1DD19A686E
:1008800042F080429A60002015E000234364DFE7D5
:1008900003680F4A934201D000200CE09A6812F0DE
:1008A000405F0CD19A6842F080429A60002002E0DA
:1008B000022000E0002002B070470020FBE700208B
:1008C000F9E700BF0C00002083DE1B43002301403A
:1008D000002001400368D86C70477047704738B5F6
:1008E000044602681168536811F0020F2FD003F01C
:1008F000200363B3036C13F0100F03D1036C43F4B4
:1009000000730364936813F0405F19D1A369BBB906
:10091000D36A13F4700F03D0936813F4806F0FD170
:10092000536823F020035360236C23F48073236403
:10093000236C13F4805F03D1236C43F00103236421
:10094000204606F0C7F923686FF012021A60236888
:1009500019685A6802F0800211F0040F36D0002A9C
:1009600034D0226C12F0100F03D1226C42F40052EA
:1009700022649A6812F4401F21D19A6B12F4401F2E
:1009800003D09A6812F4806F19D15A6812F4806FFC
:1009900015D19A6812F0405F11D1A2697AB95A68EC
:1009A00022F080025A60236C23F480532364236C6A
:1009B00013F4807F03D1236C43F0010323642046AA
:1009C00000F0FCF823686FF00C021A6022681168CE
:1009D000536803F0400311F0010F04D01BB11368FA
:1009E00013F0010F09D122681168536803F0806386
:1009F00011F0200F00D063B938BD236C43F480336D
:100A000023642046FFF769FF23686FF001021A6034
:100A1000E9E7636C43F0020363646FF0200515603F
:100A20002046FFF75BFF23681D60E5E730B482B026
:100A30000023019390F83C30012B00F0B780012394
:100A400080F83C300B68092B3ED90568EA689BB2F8
:100A500003EB43031E3B072404FA03F322EA0303D8
:100A6000EB600568EA688C680B8803EB43031E3B68
:100A700004FA03F31343EB604B68062B3AD805687E
:100A80006A6B03EB8303053B1F2404FA03F322EA9A
:100A900003036B6305686A6B4B6803EB8303053BD9
:100AA0000C8804FA03F313436B630268404B9A42C9
:100AB00050D002683E4B9A4255D0002380F83C301B
:100AC000184602B030BC704705682A699BB203EB38
:100AD0004303072404FA03F322EA03032B610568A6
:100AE0002A698C680B8803EB430304FA03F313436E
:100AF0002B61C1E70C2B16D805682A6B03EB830327
:100B0000233B1F2404FA03F322EA03032B63056843
:100B10002A6B4B6803EB8303233B0C8804FA03F333
:100B200013432B63C1E70568EA6A03EB8303413B88
:100B30001F2404FA03F322EA0303EB620568EA6A5E
:100B40004B6803EB8303413B0C8804FA03F3134324
:100B5000EB62AAE70B68122BABD1164A536843F439
:100B600080035360A5E70B68103B012BA5D8114A01
:100B7000536843F4000353600B68102B9DD10E4B58
:100B80001B6802F1467202F52E3202F28332A2FB9A
:100B900003239B0C03EB83035A00019202E0019BA9
:100BA000013B0193019B002BF9D186E7022088E7E6
:100BB00000200140002301400C000020704700008D
:100BC000074AD36823F4E0631B041B0C000200F403
:100BD000E060184340F0BF6040F40030D0607047E0
:100BE00000ED00E030B4174BDB68C3F30223C3F120
:100BF0000704042C28BF04241D1D062D18D9033B0F
:100C00004FF0FF3505FA04F421EA0401994005FA92
:100C100003F322EA0303194300280BDB0901C9B2DD
:100C200000F1604000F5614080F8001330BC70476F
:100C30000023E5E700F00F000901C9B2024B195487
:100C4000F4E700BF00ED00E014ED00E000F01F024B
:100C5000400901239340024A42F82030704700BF08
:100C600000E100E00138B0F1807F0AD2064B586005
:100C7000064AF02182F823100020986007221A60AB
:100C800070470120704700BF10E000E000ED00E079
:100C9000042805D0054A136823F004031360704745
:100CA000024A136843F004031360704710E000E049
:100CB000704708B5FFF7FCFF08BD70B110B50446DA
:100CC000037933B1022323710020206101232371B2
:100CD00010BD437106F016FCF4E70120704743791C
:100CE000012B1FD070B401254571022303710668E2
:100CF000336840F6FE74944023EA04040B684968A4
:100D00000B4393402343336004682368C02101FAF6
:100D100002F223EA020222600571002343711846A1
:100D200070BC7047022070475079137943EA002362
:100D300007480B50D07893781B0443EA006350783F
:100D400043EA002312781343024A8B50704700BFD6
:100D50004080024044800240016841F218028B58F2
:100D600043F400538B507047016841F218028B58CE
:100D700023F400538B507047016841F218028B58DE
:100D800043F002038B507047016841F218028B5800
:100D900023F002038B50704782B0084B1B68084A4F
:100DA000A2FB03235B0A00FB03F0019000BF019B41
:100DB0005A1E0192002BF9D102B070470C0000209E
:100DC000D34D621010B582B004460023019302682F
:100DD000136843F00803136003681B680193012044
:100DE000FFF7DAFF2368019A1A6002B010BD10B550
:100DF00082B00446002301930268136843F00403A1
:100E0000136003681B6801930120FFF7C5FF236887
:100E1000019A1A6002B010BD30B583B005460023B8
:100E20000193026841F21804135943F480131351DB
:100E300003681B5901930120FFF7AEFF2B68019A4D
:100E40001A5103B030BD10B582B00446002301939F
:100E50000268136823F00403136003681B6801939E
:100E60000120FFF799FF2368019A1A6002B010BDB4
:100E700010B582B00446002301930268136823F082
:100E80000803136003681B6801930120FFF784FFC8
:100E90002368019A1A6002B010BD000070B59EB0C0
:100EA000044629B14FF40063C3604FF4804383606C
:100EB000E369002B6AD14FF48063079321680B68C4
:100EC000394A1A40A368E06803430798034343F490
:100ED000007313430B6023681D680120FFF7A0FB1C
:100EE00023681D60236840225A6023685D680120E2
:100EF000FFF796FB23685D60236800259D602368EB
:100F0000DD602268936923F0BE031B041B0C43F0D1
:100F10008003936123689E690120FFF781FB2368AA
:100F20009E612368DD612368DD690120FFF778FB9E
:100F30002368DD61226841F2180551591B4B0B40B3
:100F400043F0087343F00403535123685E590120B2
:100F5000FFF766FB23685E51236803F58053144A4C
:100F60001A60236803F580531D680120FFF758FBC2
:100F7000236803F580531D60A369012B09D06269C2
:100F800000212046FFF7D0FE1EB070BD002307935E
:100F900094E7216841F21C028B5843F4803343F0FC
:100FA00040038B50EBE700BF0F8120FF233FDEF8AB
:100FB0008020C102F0B490F84540012C31D00124CA
:100FC00080F84540022480F84440C162002401E0DA
:100FD000F96001349C4217D265014F194FF4801615
:100FE0004E5140F2F45606FB0426BE60C6691EB997
:100FF0004E5946F440064E515D1EA542E8D9651C87
:1010000001EB4515FD60E4E7026841F21003D150A1
:10101000012380F84430002380F845301846F0BCA6
:1010200070470220FBE7F0B490F84540012C2ED029
:10103000012480F84540022480F844408162002465
:1010400001E0E96001349C4214D266018D194FF031
:1010500000478F5144F2F4566E6040F2F45606FB9E
:101060000426AE605E1EA642EBD9661C01EB461656
:10107000EE60E7E7026841F20C03D150012380F8EB
:101080004430002380F845301846F0BC70470220F9
:10109000FBE7000090F84530012B00F0858001232C
:1010A00080F84530022380F84430B1B1C36A1A6831
:1010B000002A1ADB30B440F2F45291421DD93B4A67
:1010C000A2FB0142920A40F2F45404FB121404B150
:1010D0000132012A11D0002347E0012380F8443077
:1010E000002280F8452018467047122380F84430CB
:1010F000002380F84530012070471A6842F04052C2
:101100001A60C36AC1F30C015960C26A136843F0E4
:1011100000431360C36ADB68C362036841F21402D0
:101120009A5812F0040F08D041F214020421995089
:10113000026841F204030021D150012380F84430B9
:10114000002380F84530184630BC7047C56A2C68CB
:1011500044F080542C6011E0C56A2C6844F00044CF
:101160002C60C46AE468C46201339A42D5D9C56A66
:101170002C6824F040542C60002BE7D0C46A40F265
:10118000F4556560541E9C42E6D1C56A2C6844F053
:1011900000542C60064C04FB021404F2F454C56A9B
:1011A000C4F30C046C60D7E7022070470BB002ACAC
:1011B0000CFAFFFF90F84530012B40D0012380F856
:1011C0004530022380F84430836A1A68002A28DBFD
:1011D0001A6812F4807F19D0826B01328263012A6F
:1011E00012D043631A68C2F30D42043AC263026B21
:1011F00092680264DB688362012380F84430002334
:1012000080F84530184670470363EAE71A6812F41D
:10121000007F0ED003630022426301228263DB68F9
:101220008362012380F84430002280F8452018466C
:101230007047826B01328263DB688362F1E70220D0
:10124000704770477047704710B50446036841F215
:1012500014029A5812F0400F11D141F214029B5817
:1012600013F0010F19D1226841F214034FF48031B9
:10127000D1502268D35813F4004F1BD110BDFFF793
:10128000E1FF226841F214034021D150012384F888
:101290004430002384F84530E5E7FFF7D2FF2168AA
:1012A000012341F214028B5084F84430002384F867
:1012B0004530D8E72046FFF7C6FF226841F2140305
:1012C0004FF40041D150012384F84430002384F8C6
:1012D0004530D3E7F8B590F84430DBB2822B33D0F9
:1012E00016460546822380F844300268136903F0ED
:1012F0001C03048AE402A4B223438C0104F4F864BE
:101300001C4344F001041461FFF784F9074614F00C
:10131000010F10D0FFF77EF9C01BB0F5803F02D25D
:101320002B681C69F3E7012385F84430002385F816
:101330004530032007E02B685B699BB233600123D3
:1013400085F844300020F8BD0220FCE790F84430D6
:10135000DBB2422B32D070B50546422380F84430D0
:101360000068036903F01C032C8AE402A4B223433F
:101370008C0104F4F8641C4344F0030492B242610B
:101380002B681C61FFF746F9064614F0010F10D0D8
:10139000FFF740F9801BB0F5803F02D22B681C6933
:1013A000F3E7012385F84430002385F84530032016
:1013B00003E0012385F84430002070BD022070470F
:1013C00070B582B000230193002800F00E8104461E
:1013D00090F84430002B34D000230093844B5A6C97
:1013E00042F480425A645B6C03F480430093009B98
:1013F000804B5A6822F400025A605A68216A0A43F4
:101400005A60236803F580531A6842F001021A609B
:10141000FFF700F90546236803F58052126812F0C1
:10142000010F13D0FFF7F6F8401BB0F5FA7FF2D9A1
:10143000032584F84450002384F84530284602B040
:1014400070BD80F8453005F0F1F8C5E71D6925F05D
:101450001C0501F091F8684B0344684A934255D843
:1014600045F0080523681D614FF400420021204625
:10147000FFF76CFF0546002860D1FF20FFF7D0F88A
:101480006368002B00F09180FFF7C4F8064601AABC
:1014900001212046FFF71EFFFFF7BCF8801B41F239
:1014A0008833984252D8019B13F0040FEFD04FF4C9
:1014B000805200212046FFF749FF002852D1FFF754
:1014C000A9F8064601AA01212046FFF703FFFFF70E
:1014D000A1F8801B41F2883398424BD8019B13F04E
:1014E000200FEFD001AA10212046FFF7F3FE0028BD
:1014F0004CD1019B13F0040F50D04FF40062E26016
:1015000013F0020F4DD00023A3605EE03C4B034478
:101510003C4A934202D845F00C05A3E73A4B0344FA
:101520003A4A93429ED93A4B03443A4A934202D8EC
:1015300045F0040596E745F0100593E701212046A4
:10154000FFF7ACFC012584F8445077E701212046E1
:10155000FFF7A4FC012384F84430002384F84530CD
:1015600003256BE701212046FFF798FC012584F84D
:10157000445063E701212046FFF790FC012384F8E3
:101580004430002384F84530032557E701212046E5
:10159000FFF784FC012584F844504FE70022E26005
:1015A000AEE74FF48043A3600FE0E268C2F3CF02DE
:1015B000A368C3F34F031A4300212046FFF7C6FE7A
:1015C00058B940F6FF70FFF72BF800212046FFF7CF
:1015D00065FC012384F8443030E701212046FFF701
:1015E0005DFC012584F8445028E7012526E700BF6B
:1015F000003802400038014000D3CEFEBFE1E400D5
:1016000040F1E9FD3F787D0100796CFCFF596202F1
:10161000001F0AFA7FF0FA0238B590F84530012B26
:101620001AD00446012580F84550022380F8443042
:10163000FFF7C8FB2046FFF7DAFB2046FFF7ECFB7D
:101640002046FFF789FB2046FFF796FB84F84450BD
:10165000002084F8450038BD0220FCE738B590F83A
:101660004530012B1AD00446012580F8455002234D
:1016700080F84430FFF778FB2046FFF785FB2046D3
:10168000FFF7E1FB2046FFF7C7FB2046FFF7F0FB23
:1016900084F84450002084F8450038BD0220FCE75F
:1016A00090F84530012B00F08E8070B50C46054651
:1016B000012380F84530022380F84430002971D09E
:1016C0000268136841491940236860680343A068B1
:1016D0000343E0680343A868034320690343606948
:1016E0000343E8680343A0690343E0690343206AB6
:1016F0000343606A0343A06A03430B4313602B68F0
:101700001E680120FEF78CFF2B681E60E36A226BC7
:101710001343626B1343A26B1343E26B1343226CBC
:101720001343626C1343A16C2A680B4353602B680C
:101730005E680120FEF774FF2B685E602B68E26C28
:101740009A602B68226DDA6029688A6922F0BE02ED
:101750001204120C606DA36D43EA0043E06D034375
:10176000206E0343606E0343A06E034313438B61FB
:101770002B689E690120FEF753FF2B689E61E36E84
:10178000216F2A680B43D3612B68DC690120FEF7C7
:1017900047FF2B68DC61012385F84430002085F881
:1017A000450070BD01680A6822F490428368C068F1
:1017B000034313430B602B681C680120FEF730FFC6
:1017C0002B681C60E7E70220704700BF0F8120FFF5
:1017D00000230F2B00F2D780F0B482B039E007224B
:1017E00000E00022B2403A430234674E46F824201B
:1017F000664A1468EA4302EA04064F6817F4803F19
:1018000001D045EA0406614C2660646802EA0406D9
:101810004F6817F4003F01D045EA04065B4C666050
:10182000A46802EA04064F6817F4801F01D045EA55
:101830000406564CA660E46822404E6816F4001F69
:1018400001D045EA0402514CE26001330F2B00F253
:10185000978001229A400C6804EA0205AA42F4D15A
:101860004C68022C01D0122C10D1DE08083650F83A
:1018700026C003F00704A7000F24BC402CEA040C88
:101880000C69BC4044EA0C0440F8264004685F0040
:101890000326BE40F64306EA040C4C6804F0030439
:1018A000BC4044EA0C0404604C6804F1FF3CBCF109
:1018B000010F03D9112C01D0122C10D1846806EA33
:1018C000040CCC68BC4044EA0C048460446824EAFC
:1018D00002024C68C4F300149C4014434460C26884
:1018E00016408A68BA403243C2604A6812F0805F8C
:1018F000ABD000220192264A546C44F480445464D4
:10190000526C02F480420192019A9C08A61C1E4A65
:1019100052F8267003F0030296000F22B24027EA25
:1019200002071C4A90423FF45CAF02F5806290428D
:101930001AD002F58062904218D002F5806290427F
:1019400016D002F58062904214D002F58062904277
:1019500012D002F58062904210D002F5806290426F
:101960003FF43DAF08223DE701223BE7022239E781
:10197000032237E7042235E7052233E7062231E761
:1019800002B0F0BC7047704700380140003C014095
:1019900000380240000002400369194201D10020D2
:1019A00070470120704712B9090481617047816155
:1019B0007047436959404161704703685A6912F49E
:1019C000806F0DD06FF480625A610423036400239A
:1019D0000363202280F83D2080F83C3001207047CE
:1019E00000207047F8B506460C4617461D461EE017
:1019F0002DB1FEF70FFE069BC01AA84217D900238F
:101A00003363202286F83D2086F83E3086F83C304D
:101A100003201AE033685B6924EA03039BB2B3FA3C
:101A200083F35B099F420FD1B5F1FF3FE0D1C4F3CF
:101A30000743012BEED033689B6924EA03039BB272
:101A4000B3FA83F35B09EDE70020F8BDF8B504466F
:101A50000D4616461F4632E01A6842F400721A60BC
:101A600023686FF480625A61042323640023236394
:101A7000202284F83D2084F83C3001202DE026B15E
:101A8000FEF7C8FDC01BB04219D9002323632022F2
:101A900084F83D2084F83C3003201EE023685B6915
:101AA00025EA03039BB2003318BF0123A3B12368C7
:101AB0005A6912F4806FCFD1B6F1FF3FDFD1C5F381
:101AC0000743012BEAD023689B6925EA03039BB2F5
:101AD000003318BF0123E9E70020F8BDF0B583B05B
:101AE00004460D4616461F46C36A042B0DD0012B33
:101AF0000BD013F5803F08D0036B122B0AD102687C
:101B0000136843F48073136004E02268136843F49D
:101B1000807313600097334600224FF00111204676
:101B2000FFF760FF58BB2369B3F5804F10D12368DE
:101B300005F0FE051D613B46324615492046FFF77C
:101B400085FF0346E0B1236C042B1ED1012317E06F
:101B5000EB11226803F0060343F0F00313613B46E8
:101B600032460C492046FFF771FF20B1236C042B4D
:101B700009D1012304E02368EDB21D61DBE70323F3
:101B8000184603B0F0BD0323FAE70323F8E700BFCC
:101B9000020001000800010070B504460D4616461B
:101BA00023685B6913F0800F19D12046FFF705FF0A
:101BB000B8B9B5F1FF3FF3D025B1FEF72BFD801B7F
:101BC000A842EDD9236C43F0200323640023236350
:101BD000202284F83D2084F83C30032000E00020DF
:101BE00070BD0120FCE770B504460D46164623681B
:101BF0005B6913F0040F19D12046FFF7DEFEB8B978
:101C0000B5F1FF3FF3D025B1FEF704FD801BA842DC
:101C1000EDD9236C43F020032364002323632022A7
:101C200084F83D2084F83C30032000E0002070BDA3
:101C30000120FCE7002800F0828010B5044690F8EF
:101C40003D30002B41D0242384F83D3022681368B6
:101C500023F00103136000F095FC3A4BA3FB002333
:101C60009B0C226853606168374A914232D8013335
:101C7000226813626368344A934235D85B00B0FB34
:101C8000F3F0C0F30B03032B00D804202368D861C2
:101C9000E369216A22680B4313602369E1682268C3
:101CA0000B4393606369A16922680B43D360226888
:101CB000136843F00103136000202064202384F89C
:101CC0003D30206384F83E0010BD80F83C3005F0C4
:101CD0003DFCB8E74FF4967202FB03F31B4AA2FBEC
:101CE00003239B090133C3E7A16889B903EB4302CE
:101CF000B0FBF2F2C2F30B02B2FA82F25209E2B97D
:101D000091B903EB4303B0FBF3F040F40040BDE7AF
:101D100003EB830202EB8202B0FBF2F2C2F30B028E
:101D2000B2FA82F25209EAE703EB830303EB83037F
:101D3000B0FBF3F040F44040A8E70120A6E7012003
:101D4000704700BF83DE1B43A0860100D34D6210A5
:101D50002DE9F04184B004460E4690461F46FEF73A
:101D600059FC94F83D30DBB2202B04D002263046DB
:101D700004B0BDE8F08105460090192301225449C2
:101D80002046FFF72FFE002840F0998094F83C3061
:101D9000012B00F09680012384F83C3023681A68F8
:101DA00012F0010F03D11A6842F001021A60226892
:101DB000136823F400631360212384F83D3010235B
:101DC00084F83E3000232364C4F824806785A3F59B
:101DD0008033E362638D23852B460A9A3146204681
:101DE000FFF77CFE064660B1236C042B04D1002370
:101DF00084F83C300126BAE7002384F83C300326FF
:101E0000B5E70023039323685A6903929B69039300
:101E1000039B10E0236C042B55D12268136843F414
:101E2000007313600126A2E72A460A992046FFF7AD
:101E3000DAFE00282BD1238D002B32D02A460A99B6
:101E40002046FFF7A9FE0028E4D1636A5A1C6262AB
:101E500022681B781361638D013B9BB26385238DE0
:101E6000013B9BB223852268516911F0040FDBD03E
:101E7000002BD9D0636A591C61621B781361638D92
:101E8000013B9BB26385238D013B2385CCE7236C0B
:101E9000042B1AD12268136843F4007313600126DF
:101EA00065E72268136843F400731360202384F805
:101EB0003D30002384F83E3084F83C3057E702265A
:101EC00055E7022653E7032651E703264FE700BFF5
:101ED0000200100088B370B5044615460E4690F80F
:101EE00049300BB304F10801206801F0BDF9A26884
:101EF0003146206801F0E6F9236BA2682946606844
:101F000001F000FA2268A16852F8213043F0010381
:101F100042F82130636963B9094B00221A6001233A
:101F200084F84930002070BD80F8483005F0D2FBBD
:101F3000D8E7034B01221A60F1E70120704700BF88
:101F400090000020002800F0BB8170B582B00446EC
:101F5000036813F0010F3BD0A74B9B6803F00C0301
:101F6000042B2CD0A44B9B6803F00C03082B21D02E
:101F70006368B3F5803F4FD0B3F5A02F52D09E4B8E
:101F80001A6822F480321A601A6822F480221A60D9
:101F90006368002B50D0FEF73DFB0546964B1B684F
:101FA00013F4003F14D1FEF735FB401B6428F5D92C
:101FB00003208AE1904B5B6813F4800FD8D08E4BDE
:101FC0001B6813F4003F03D06368002B00F07A8194
:101FD000236813F0020F55D0874B9B6813F00C0F4A
:101FE0003ED0854B9B6803F00C03082B33D0E3688D
:101FF000002B68D0814B01221A60FEF70BFB0546CF
:102000007D4B1B6813F0020F54D1FEF703FB401BFE
:102010000228F5D9032058E1774A136843F4803346
:102020001360B5E7744B1A6842F480221A601A688C
:1020300042F480321A60ABE7FEF7ECFA05466E4BCD
:102040001B6813F4003FC3D0FEF7E4FA401B64287A
:10205000F5D9032039E1684B5B6813F4800FC6D1D2
:10206000654B1B6813F0020F04D0E368012B01D00D
:1020700001202AE1604A136823F0F803216943EA4A
:10208000C1031360236813F0080F40D0636963B382
:102090005B4B01221A60FEF7BDFA0546564B5B6F9B
:1020A00013F0020F33D1FEF7B5FA401B0228F5D921
:1020B00003200AE1504A136823F0F803216943EA38
:1020C000C1031360DEE74D4B00221A60FEF7A2FA4F
:1020D0000546494B1B6813F0020FD3D0FEF79AFA5E
:1020E000401B0228F5D90320EFE0454B00221A607F
:1020F000FEF790FA0546404B5B6F13F0020F06D0D7
:10210000FEF788FA401B0228F5D90320DDE023689A
:1021100013F0040F79D0384B1B6C13F0805F33D170
:1021200000230193344B1A6C42F080521A641B6CEA
:1021300003F080530193019B0125324B1B6813F47C
:10214000807F23D0A368012B34D0052B38D02A4BB5
:102150001A6F22F001021A671A6F22F004021A673E
:10216000A368002B36D0FEF755FA0646224B1B6FAC
:1021700013F0020F48D1FEF74DFA801B41F288336D
:102180009842F3D90320A0E00025D6E71D4A136842
:1021900043F480731360FEF73DFA0646194B1B6843
:1021A00013F4807FCED1FEF735FA801B0228F5D9D3
:1021B00003208AE0104A136F43F001031367CFE74F
:1021C0000D4B1A6F42F004021A671A6F42F00102B7
:1021D0001A67C5E7FEF71EFA0646074B1B6F13F09A
:1021E000020F11D0FEF716FA801B41F28833984295
:1021F000F3D9032069E000BF0038024000004742E5
:10220000800E474200700040E5B9A369002B5BD007
:10221000304A926802F00C02082A58D0022B17D0DC
:102220002D4B00221A60FEF7F5F90446294B1B6876
:1022300013F0007F42D0FEF7EDF9001B0228F5D91C
:10224000032042E0234A136C23F080531364DCE73D
:10225000214B00221A60FEF7DDF905461D4B1B6875
:1022600013F0007F06D0FEF7D5F9401B0228F5D900
:1022700003202AE0E369226A1343626A43EA821375
:10228000A26A5208013A43EA0243E26A43EA02635D
:10229000104A5360104B01221A60FEF7BBF9044646
:1022A0000C4B1B6813F0007F06D1FEF7B3F9001B3F
:1022B0000228F5D9032008E0002006E0002004E011
:1022C00001207047012000E0002002B070BD012015
:1022D000FBE700BF003802406000474270B588B09D
:1022E0000C46164608B300230293204D2A6B42F099
:1022F00004022A632A6B02F004020292029A4FF44B
:10230000007203920222049203220692059307931D
:1023100003A91748FFF75CFAAB6823F0784344EA57
:10232000C6041C43AC6008B070BD002301930F4D80
:102330002A6B42F001022A632A6B02F00102019229
:10234000019A4FF4807203920222049203220692B1
:102350000593079303A90748FFF73AFAAB6823F000
:10236000EC6334431C43AC60DDE700BF003802403F
:102370000008024000000240264B9B6803F00C035B
:10238000042B44D0082B01D0234870472DE9F04B93
:10239000204B5A6802F03F025B6813F4800F13D0A1
:1023A0001C4B5968C1F3881100231C48A1FB000194
:1023B000FDF70EFF174B5B68C3F3014301335B006E
:1023C000B0FBF3F0BDE8F08B124B5B68C3F38813EE
:1023D0001E4600275C010025E41A65EB0705A901EC
:1023E00041EA9461A001001B61EB0501CB0043EAC7
:1023F0005073C400A01943EB07018B0243EA9053CA
:102400008402204619460023FDF7E2FED2E7034886
:10241000704700BF003802400024F40040787D017E
:10242000002800F09D8070B504464F4B1B6803F0F8
:102430000F038B4209D2CBB24B4A1370136803F0DF
:102440000F038B4201D0012070BD236813F0020FEF
:1024500017D013F0040F04D0444A936843F4E053B8
:102460009360236813F0080F04D0404A936843F444
:10247000604393603D4A936823F0F003A0680343F0
:1024800093600D46236813F0010F32D06368012B6F
:1024900021D09A1E012A25D9344A126812F0020F5F
:1024A00060D032498A6822F0030213438B60FEF742
:1024B000B1F806462D4B9B6803F00C036268B3EB42
:1024C000820F16D0FEF7A6F8801B41F2883398429F
:1024D000F0D90320B8E7254A126812F4003FE0D192
:1024E0000120B1E7214A126812F0007FD9D1012002
:1024F000AAE71D4B1B6803F00F03AB4209D9EAB2F0
:10250000194B1A701B6803F00F03AB4201D0012076
:102510009AE7236813F0040F06D0144A936823F453
:10252000E053E1680B439360236813F0080F07D072
:102530000E4A936823F46043216943EAC103936020
:10254000FFF71AFF094B9B68C3F30313084AD35CD8
:10255000D840084B18600020FEF712F8002073E7FF
:102560000120704701206FE7003C02400038024024
:10257000648B00080C000020014B1868704700BFF6
:102580000C00002008B5FFF7F7FF044B9B68C3F36E
:102590008223034AD35CD84008BD00BF0038024004
:1025A000748B000808B5FFF7E7FF044B9B68C3F383
:1025B0004233034AD35CD84008BD00BF0038024014
:1025C000748B000870B582B0044600230193006844
:1025D00001F0ACF8054610B1284602B070BD206885
:1025E00001F0B7F8064610B30023A3642E46DEB907
:1025F000019B5A1C01924FF6FF72934244D0002176
:10260000206801F0BDF8002841D10021206801F0C8
:10261000CFF8064600283DD10021206800F069FF70
:10262000C00FE4D00646E2E700236364D4E7012349
:10263000A3640546EDB9019B5A1C01924FF6FF7247
:1026400093422AD00021206801F09AF8054600281C
:10265000C2D14FF08041206801F0AAF80546002859
:10266000BAD10021206800F044FFC30FE2D01D461C
:10267000E0E710F0804F03D1002363643546ABE7F9
:10268000012363643546A7E74FF08075A4E74FF058
:102690008055A1E74FF080559EE74FF080759BE78E
:1026A00030B4436E9A0F0A70C3F383624A70C3F367
:1026B00001638B7090F86630CB7090F865300B71C9
:1026C00090F864304B7190F86B301B01CB80B0F800
:1026D0006A30CC88C3F303122243CA8003F00F038D
:1026E0000B7290F86930DA094A72C3F380128A7269
:1026F000C3F34012CA72C3F300120A7300224A7372
:10270000426C002A40F092809B0203F440630B610C
:10271000836E0A699B0003F47F7313430B61C36EDE
:102720000A6942EA93720A61C3F3C2620A75C3F38B
:1027300002634B75C26EC2F30743C2F342548C75F9
:10274000C2F38242CA755B0003F006030B76C26EC9
:10275000C2F307230C7EC2F3C03222430A760A6911
:10276000013242650C7E023402FA04F444650A7AAE
:10277000D5B20122AA408265520A02FB04F2C26568
:102780004FF400720266C3F380124A765B0003F0D6
:102790007E038B76C36E8A7EC3F3C01422438A768F
:1027A00003F07F03CB76036F1A0EDC0F0C77C3F3B5
:1027B00041744C77C3F382638B77930003F00C036F
:1027C000CB77036FCA7FC3F381542243CA77C3F325
:1027D000405281F82020002281F82120C3F30043D9
:1027E00081F82230036FC3F3C03481F82340C3F370
:1027F000803481F82440C3F3403481F82540C3F38A
:10280000003481F82640C3F3812481F82740C3F3C4
:10281000012381F82830036FC3F3460381F8293080
:10282000012381F82A30104630BC7047012A0CD0B1
:10283000036840F2FF529A63836B43F080538363D3
:10284000012280F834201046EEE7836E1B0403F467
:102850007C130B6190F86F200B6943EA02230B6134
:102860000A6990F86E3013430B6190F86D300A6975
:10287000013292024265C2654FF4007282650266BF
:1028800081E770B590B004460123ADF812300068BE
:1028900000F016FE00286AD0636C032B43D1636CF2
:1028A000032B5BD1636C032B1DD0BDF81210216587
:1028B0000904206800F0AAFF0546002859D100212C
:1028C000206800F016FE60660421206800F011FE0A
:1028D000A0660821206800F00CFEE0660C2120684C
:1028E00000F007FE20670421206800F002FE000DC2
:1028F000E06405A92046FFF7D3FE226D12040023F1
:10290000206800F0FBFE054698BB234653F8106B89
:1029100093E807008DE80700043494E80E00304681
:1029200000F0AEFD25E0206800F05BFF054600BB2F
:102930000021206800F0DDFD60670421206800F0C0
:10294000D8FDA0670821206800F0D3FDE0670C21C6
:10295000206800F0CEFDC4F88000A0E70DF1120160
:10296000206800F068FF054600289BD001E04FF08A
:102970008065284610B070BD70B58AB00546002449
:1029800004940594069407940894762309930AAB5B
:1029900013E907008DE8070004AB0ECB286800F0B0
:1029A0006FFD124E3460286800F086FD012333600D
:1029B0000220FDF735FE2846FFF704FE40B102462F
:1029C000012085F83400AB6B1343AB630AB070BDD4
:1029D0002846FFF756FF024630B1012085F8340043
:1029E000AB6B1343AB63F1E70020EFE7A080254218
:1029F000A8B110B5044690F8343063B1032384F8CD
:102A000034302046FFF7B8FF0020A0632063012385
:102A100084F8343010BD037704F0C2FDEEE70120E6
:102A2000704728B370B5044615460E4690F84930F5
:102A3000CBB104F10801206800F016FCA268314611
:102A4000206800F03FFC236BA2682946606800F014
:102A500059FC2268A16852F8213043F0010342F882
:102A60002130002070BD80F8483004F037FEE0E7E8
:102A70000120704710B4036A046A24F00104046260
:102A8000846924F0F00444EA021223F00A030B43A1
:102A9000826103625DF8044B704710B4036A23F04F
:102AA000100303628469036A24F4704444EA023226
:102AB00023F0A00343EA0113826103625DF8044B33
:102AC0007047836823F0700341F007011943816068
:102AD000704710B4846824F47F4442EA03230B4314
:102AE000234383605DF8044B70470268D36843F06A
:102AF0000103D3600268136843F0010313600020F0
:102B0000704790F83830012B7DD010B50446012372
:102B100080F83830022380F839300268936823F453
:102B20007F4323F0770393600B68402B57D010D975
:102B3000702B3ED01FD8502B47D0602B32D1CA68A3
:102B400049680068FFF7A9FF60212068FFF7B9FF17
:102B500028E0102B4DD008D9202B4FD0302B21D17D
:102B600030210068FFF7ADFF1CE0DBB900210068F1
:102B7000FFF7A7FF16E0B3F5805F0ED0B3F5005F57
:102B800010D1CB684A6889680068FFF7A2FF226805
:102B9000936843F48043936004E00268936823F0F1
:102BA00007039360012384F83930002084F838004B
:102BB00010BDCB684A6889680068FFF78AFF226801
:102BC000936843F077039360ECE7CA68496800684C
:102BD000FFF750FF50212068FFF773FFE2E7CA6854
:102BE00049680068FFF746FF40212068FFF769FF4A
:102BF000D8E710210068FFF764FFD3E720210068C1
:102C0000FFF75FFFCEE702207047704770477047BD
:102C1000704710B5044603681A6912F0020F11D00C
:102C2000DA6812F0020F0DD06FF002021A61012370
:102C3000037603689B6913F0030F70D0FFF7E6FF7C
:102C40000023237623681A6912F0040F12D0DA6881
:102C500012F0040F0ED06FF004021A6102232376E3
:102C600023689B6913F4407F5FD02046FFF7CEFFB7
:102C70000023237623681A6912F0080F12D0DA684D
:102C800012F0080F0ED06FF008021A6104232376A9
:102C90002368DB6913F0030F4ED02046FFF7B6FF21
:102CA0000023237623681A6912F0100F12D0DA6815
:102CB00012F0100F0ED06FF010021A610823237665
:102CC0002368DB6913F4407F3DD02046FFF79EFF69
:102CD0000023237623681A6912F0010F03D0DA6803
:102CE00012F0010F36D123681A6912F0800F03D059
:102CF000DA6812F0800F34D123681A6912F0400F9D
:102D000003D0DA6812F0400F32D123681A6912F04A
:102D1000200F03D0DA6812F0200F30D110BDFFF77A
:102D200074FF2046FFF773FF8AE72046FFF76DFF29
:102D30002046FFF76CFF9BE72046FFF766FF204623
:102D4000FFF765FFACE72046FFF75FFF2046FFF780
:102D50005EFFBDE76FF001021A61204603F0F4FF49
:102D6000C1E76FF080021A61204600F0B2F8C3E7B5
:102D70006FF040021A612046FFF74AFFC5E76FF087
:102D800020021A61204600F0A3F8C7E703682E4A24
:102D9000904212D0B0F1804F0FD0A2F57C42904209
:102DA0000BD002F58062904207D002F5806290421B
:102DB00003D002F57842904203D123F070034A68B1
:102DC0001343214A90422AD0B0F1804F27D0A2F578
:102DD0007C42904223D002F5806290421FD002F5DF
:102DE000806290421BD002F57842904217D002F5E3
:102DF0007052904213D002F5806290420FD002F5DB
:102E0000806290420BD0A2F59832904207D002F532
:102E10008062904203D002F58062904203D123F495
:102E20004073CA68134303608B68C3620B68836294
:102E3000054B984203D003F58063984201D10B699A
:102E4000036301234361704700000140A8B110B53E
:102E5000044690F839305BB1022384F83930211DE3
:102E60002068FFF793FF012384F83930002010BD5C
:102E700080F8383004F0CAFBEEE70120704790F884
:102E80003830012B22D030B4012280F838200223C0
:102E900080F839300468636823F070036360046865
:102EA00063680D682B4363600468A36823F08003A4
:102EB000A3600468A36849680B43A36080F83920C5
:102EC000002380F83830184630BC70470220704725
:102ED000704770472DE9F843044601680A6922F4F7
:102EE0004052C36813430B610168CA6822F416425A
:102EF00022F00C0283680069034360690343E069C0
:102F000003431343CB6021684A6922F44072A369EA
:102F100013434B61E369B3F5004F60D02368B84AAF
:102F2000934200F0148102F58062934200F00F8119
:102F3000FFF728FB00EB800000EB80006568AD0028
:102F4000B0FBF5F5AF4FA7FB05356D092E01FFF777
:102F500019FB00EB800000EB80006568AD00B0FB62
:102F6000F5F9FFF70FFB00EB800000EB80006568D0
:102F7000AD00B0FBF5F5A7FB05356D094FF0640812
:102F800008FB15952D013235A7FB05356D0905F0B8
:102F9000F0053544FFF7F6FA00EB800000EB800007
:102FA0006668B600B0FBF6F6FFF7ECFA00EB8000BF
:102FB00000EB800063689B00B0FBF3F0A7FB0030E0
:102FC000400908FB10684FEA081808F13208A7FB0F
:102FD0000837C7F3431723682F449F600DE1236828
:102FE000874A93425BD002F58062934257D0FFF745
:102FF000C9FA00EB800000EB800065686D00B0FB53
:10300000F5F5804FA7FB05356D092E01FFF7BAFADC
:1030100000EB800000EB800065686D00B0FBF5F907
:10302000FFF7B0FA00EB800000EB800065686D00F0
:10303000B0FBF5F5A7FB05356D094FF0640808FBFB
:103040001595ED003235A7FB05356D096D0005F4CA
:10305000F8753544FFF796FA00EB800000EB80002E
:1030600066687600B0FBF6F6FFF78CFA00EB80009E
:1030700000EB800063685B00B0FBF3F3A7FB032366
:103080005B0908FB13684FEAC80808F13208A7FB80
:103090000837C7F3421723682F449F60ADE0FFF75E
:1030A00081FA00EB800000EB800065686D00B0FBEA
:1030B000F5F5544FA7FB05356D092E01FFF772FAA0
:1030C00000EB800000EB800065686D00B0FBF5F957
:1030D000FFF768FA00EB800000EB800065686D0088
:1030E000B0FBF5F5A7FB05356D094FF0640808FB4B
:1030F0001595ED003235A7FB05356D096D0005F41A
:10310000F8753544FFF74EFA00EB800000EB8000C5
:1031100066687600B0FBF6F6FFF744FA00EB800035
:1031200000EB800063685B00B0FBF3F3A7FB0323B5
:103130005B0908FB13684FEAC80808F13208A7FBCF
:103140000837C7F3421723682F449F6055E0FFF705
:1031500029FA00EB800000EB80006568AD00B0FB51
:10316000F5F5284FA7FB05356D092E01FFF71AFA73
:1031700000EB800000EB80006568AD00B0FBF5F966
:10318000FFF710FA00EB800000EB80006568AD00EF
:10319000B0FBF5F5A7FB05356D094FF0640808FB9A
:1031A00015952D013235A7FB05356D0905F0F005A4
:1031B0003544FFF7F7F900EB800000EB800066680C
:1031C000B600B0FBF6F6FFF7EDF900EB800000EB80
:1031D000800063689B00B0FBF3F0A7FB0030400960
:1031E00008FB10684FEA081808F13208A7FB0837F7
:1031F000C7F3431723682F449F60BDE8F88300BFDF
:10320000001001401F85EB5158B310B5044690F8EB
:1032100039300BB3242384F839302268D36823F47F
:103220000053D3602046FFF755FE2268136923F44C
:10323000904313612268536923F02A035361226883
:10324000D36843F40053D3600020E063202384F864
:10325000393084F83A3010BD80F8383004F010FA74
:10326000D8E701207047000070B40C6850F8243093
:10327000134E1E404A688D6842EA0503CA6813432C
:103280000A6913434A6913438A691343CA6913439A
:103290000A6A13434A6A13438A6A1343CA6A134386
:1032A000CA6B13430A6B13433343082D04D040F811
:1032B0002430002070BC704743F04003F7E700BFA4
:1032C0008000F0FF30B4013250F8224004F0404456
:1032D0000B684D6843EA05138D6843EA0523CD6802
:1032E00043EA05430D69013D43EA05534D69023D3B
:1032F00043EA056389690B43234340F822300020E9
:1033000030BC7047B3F5804F05D06FF0704340F884
:1033100022300020704730B450F82230094C1C4055
:103320000B684D6843EA05138D6843EA0523CD68B1
:1033300043EA054389690B43234340F822300020C8
:1033400030BC70470000F0CF0C4B1B680C4AA2FB4E
:1033500003235A0A41F2883303FB02F35A1E4BB18E
:10336000416B134611F0800FF8D040F2FF53836396
:10337000002070474FF00040704700BF0C00002055
:10338000D34D6210144B1B68144AA2FB03235A0A44
:1033900041F2883303FB02F35A1ECBB1416B134653
:1033A00011F0450FF8D0436B13F0040F08D1436BB5
:1033B00013F0010F08D140F2FF53836300207047E0
:1033C00004238363184670470123836318467047BC
:1033D0004FF00040704700BF0C000020D34D62103A
:1033E000104B1B68104AA2FB03235A0A41F2883390
:1033F00003FB02F35A1E8BB1416B134611F0450FCC
:10340000F8D0436B13F0040F04D140F2FF538363F1
:103410000020704704238363184670474FF0004034
:10342000704700BF0C000020D34D6210124B1B6888
:10343000124AA2FB03235A0A41F2883303FB02F328
:103440005A1EA3B1416B134611F0450FF8D0436BE0
:1034500013F0040F07D1436B13F0400F0AD0402341
:1034600083630020704740238363042070474FF03C
:1034700000407047002070470C000020D34D6210C0
:1034800084B010B402AC84E80E000B46039A1343D8
:10349000049A1343059A1343069A1343079A134356
:1034A000426822F4FD4222F07F0213434360002071
:1034B0005DF8044B04B0704703230360002070479D
:1034C000006800F0030070470B6883604B688A68EF
:1034D0001343CA6813430A691343C26822F47F6224
:1034E00022F00F021343C360002070470069C0B28E
:1034F000704782B000230193143001440191019B75
:10350000186802B07047000038B5514B1B68514C29
:10351000A4FB03435B0A02FB03F2531E002A5ED0A6
:10352000446B1A4614F0450FF7D0436B13F0040FA9
:1035300007D1436B13F0010F07D0012383631846B3
:103540004FE00423836318464BE00D460446FFF723
:10355000CDFFA84201D0012043E040F2FF53A36316
:1035600000212046FFF7C5FF3B4B0340D3B30028A3
:103570003ADB10F0804F3AD110F0005F39D110F0F3
:10358000805F38D110F0006F38D110F0806F38D1E3
:1035900010F0807F38D110F4000F38D110F4800F74
:1035A00038D110F4001F38D110F4801F38D110F436
:1035B000802F38D110F4003F38D110F4803F38D13B
:1035C00010F4004F38D110F4804F38D110F4005F60
:1035D00038D110F0080F38D04FF4000001E04FF060
:1035E000004038BD0020FCE74FF00070F9E74020B4
:1035F000F7E78020F5E74FF48070F2E74FF40070B2
:10360000EFE74FF48060ECE74FF40060E9E74FF438
:103610008050E6E74FF40050E3E74FF48040E0E7E6
:103620004FF40040DDE74FF40030DAE74FF480203C
:10363000D7E74FF40020D4E74FF48010D1E74FF4E0
:103640000010CEE74FF48000CBE74FF48030C8E79E
:103650000C000020D34D621008E0FFFD70B5254B33
:103660001B68254CA4FB03435C0A41F2883303FB2F
:1036700004F35C1EA3B3456B234615F0450FF8D049
:10368000436B13F0040F07D1436B13F0010F07D006
:1036900001238363184625E004238363184621E051
:1036A00016460D460446FFF721FFA84201D001202F
:1036B00018E040F2FF53A36300212046FFF719FFF3
:1036C00010F4604F08D010F4804F0CD110F4004F6C
:1036D0000CD04FF4805005E0000C3080002001E059
:1036E0004FF0004070BD4FF40050FBE74FF48030C6
:1036F000F8E700BF0C000020D34D621030B587B052
:103700000546019207240294402303930023049367
:103710004FF48063059301A9FFF7D6FE41F288328A
:1037200021462846FFF7F0FE07B030BD10B586B041
:103730000446002301930293039304934FF48063A0
:10374000059301A9FFF7C0FE2046FFF7FDFD06B077
:1037500010BD10B586B004464FF4D573019308230D
:10376000029340230393002304934FF48063059353
:1037700001A9FFF7A9FE2046FFF758FE06B010BDCD
:1037800030B587B005460191372402944023039356
:10379000002304934FF48063059301A9FFF794FE7F
:1037A00041F2883221462846FFF7AEFE07B030BD11
:1037B00010B586B0044641F0004141F480110191FA
:1037C0002923029340230393002304934FF480633F
:1037D000059301A9FFF778FE2046FFF701FE06B02A
:1037E00010BD10B586B00446002301930222029258
:1037F000C022039204934FF48063059301A9FFF75D
:1038000063FE2046FFF7BEFD06B010BD10B586B0C2
:103810000446019109230293C023039300230493D8
:103820004FF48063059301A9FFF74EFE2046FFF792
:10383000A9FD06B010BD70B586B005460E46002342
:103840000193032402944022039204934FF4806373
:10385000059301A9FFF738FE324621462846FFF7B7
:10386000FDFE06B070BD40BA80B2704708B500F0EA
:1038700075F800F047FA00F09AFA00F0FBFF00F04C
:1038800085FF08BD10B504462D4B1B68834231D817
:103890002B4B5B68A34235D92379002B3AD123887F
:1038A000B3F5C86F3ED8264B1B6821885A1894423E
:1038B0000FD0107968B922484068904209D020485A
:1038C0008068904236D05A5A2280E01A5A5A1A44D6
:1038D000508061885A1894420BD0107948B9184822
:1038E0008068A04229D020885852D21A21880B44DF
:1038F0005A8010BD134B40F25D121349134804F077
:1039000009F8C5E70F4B4FF4AF7211490F4804F0A7
:1039100001F8C1E70B4B40F25F120E490B4803F070
:10392000F9FFBCE7074B4FF4B1720B49074803F0AE
:10393000F1FFB8E7024A9460C5E701488260D2E728
:10394000940000207C8B0008AC8B0008C48B00081E
:10395000EC8B0008088C0008248C000810B40B4B7A
:1039600023F003030A4A13604FF4C8601880002153
:10397000598019711918516001240C71A3F840067F
:10398000488093605DF8044B704700BF0702002039
:103990009400002000283DD038B5044610F0030FF5
:1039A00028D11D4B1B68A34203D81B4B5B68A34265
:1039B00006D81A4B40F2AF1219491A4803F0AAFF71
:1039C000154B1B68A34214D8134B5B68A34210D954
:1039D000A4F1080514F8043CA3B1002304F8043C46
:1039E0000D4B9B68AB4201D90B4B9D602846FFF7FE
:1039F00049FF38BD094B4FF4D6720B49094803F013
:103A000089FFCEE7054B4FF4E0720849054803F003
:103A100081FFE2E7704700BF940000207C8B000824
:103A2000748C0008C48B0008508C00088C8C000833
:103A3000F8B50546CC1CA4B224F00304A4B20B2CA8
:103A400004D9B4F5C86F02D9002543E00C24384BE3
:103A50001B68AB4203D8364B5B68AB4206D8354B8C
:103A60004FF4FA723449354803F054FF304B1B6869
:103A7000AB422FD82E4A5268AA422BD9A5F108078B
:103A8000FF1ABFB235F8086CF61BB6B2083EB6B2E4
:103A9000B44221D8B44249D81CD0254B1A6835F815
:103AA000083CD118087918BBD05AE3199BB20833E7
:103AB0009BB21F4CA4688C4216D0D11800240C7104
:103AC000D0524F8025F8083CD15AB1F5C86F01D0CB
:103AD0000A4453802846F8BD164B40F20622184986
:103AE000164803F017FFD5E7D118114CA160E4E7A1
:103AF00004F11403B342EDD8E3199BB208339BB22F
:103B0000D1180B488068884201D90948816000209B
:103B1000087135F8080CD0524F8025F8083CD15A6E
:103B2000B1F5C86FD6D00A445380D3E70025D1E75A
:103B3000940000207C8B0008A08C0008C48B000837
:103B4000B88C0008002800F083800246033292B24D
:103B500022F0030292B20B2A04D9B2F5C86F02D93F
:103B6000002070470C22F8B53A4B1E689B689B1BDF
:103B70009BB244E001232371364B9B68A34210D0D3
:103B800025440835334B5B689D421FD814F003056C
:103B900024D15DBB04F1080059E02E4A12681B884D
:103BA00013441A791AB12B4949689942F5D1294928
:103BB0008B6049689942E3D0002AE1D0264B40F25D
:103BC000CF222649264803F0A5FED9E7224B4FF421
:103BD00035722449224803F09DFED7E71E4B40F280
:103BE000D62221491E4803F095FED2E71A4B4FF426
:103BF00036721E491A4803F08DFECBE723881F4614
:103C00001546C2F5C860834220D2F41820790028F6
:103C1000F4D1F15AC91B0839A942EFD305F11400B8
:103C20008142A7D31A4492B2083292B2B11800204E
:103C300008712088B0524B80228001232371B35A2F
:103C4000B3F5C86F98D01E44728095E70020F8BD88
:103C500000207047940000207C8B0008D88C00085E
:103C6000C48B0008F48C0008248D0008548D0008D3
:103C700010B583681C6874B122681A6014F0030FD1
:103C800001D1204610BD054B40F2491204490548B8
:103C900003F040FEF5E70024F3E700BF788D00084D
:103CA000A88D0008C48B000838B505460C4611F0F5
:103CB000030F05D1AB681B682360AB681C6038BD7F
:103CC000034B40F29D120349034803F023FEF1E742
:103CD000788D0008CC8D0008C48B00088368002212
:103CE0001A604368033323F0030307E0816809681F
:103CF000196081680B6001880B4401324188914250
:103D0000F4DC704710B5002406E0054B53F824009E
:103D1000FFF7E4FF0134A4B2052CF6D910BD00BFB3
:103D2000DC8A000808B5052805D8074B53F82000A1
:103D3000FFF79EFF08BD054B40F287120449054876
:103D400003F0E8FD0020F5E7DC8A0008788D000824
:103D5000008E0008C48B000808B5052806D821B1DC
:103D6000064B53F82000FFF79FFF08BD044B40F2BD
:103D7000DB120449044803F0CDFDF6E7DC8A0008B5
:103D8000788D0008208E0008C48B000811F0010F08
:103D90000CD008B5436823B190F8333013F0080F06
:103DA00000D108BD011D01F06DF9FAE770477047B9
:103DB00030B583B00D46B9B10A68019242680199E5
:103DC00091420FD0044601A9043000F0F1FE7DB10C
:103DD0002B68636001212046FFF7D8FFE3690BB130
:103DE0002046984703B030BD024A12680192E5E7C9
:103DF0000023EEE7508B000811B10B68C3607047D9
:103E00000023FBE711B10B68836070470023FBE7D9
:103E1000F8B5044617461E460D4609B10B6863B94E
:103E200029462046FFF7C4FF39462046FFF7EAFF40
:103E300031462046FFF7E0FFF8BD1146FFF7E2FFED
:103E400031462046FFF7D8FF29462046FFF7B0FF4E
:103E5000F2E700002DE9F04104460E461746984669
:103E6000079D25B300236360A360E36084F83330CB
:103E7000032284F82820E3612362069B6362104AD0
:103E80001378591C117084F83630089B236143461F
:103E90003A4631462046FFF7BBFF2046A84768B99F
:103EA000084B1A6822601C602046BDE8F081064B72
:103EB000FB220649064803F02DFDD3E70020F4E776
:103EC000B8000020183200203C8E0008708E0008D8
:103ED000C48B0008014B1860704700BF1C320020E3
:103EE00090F8333013F0010F13D110B5044643F0AE
:103EF000010380F83330C36903B1984794F8333035
:103F000013F0040F00D110BD03212046FFF73EFF40
:103F1000F9E7704790F8333013F0010F10D010B567
:103F2000044603F0FE0380F8333013F0080F04D189
:103F3000E3690BB12046984710BD01F02BF8F7E775
:103F4000704700B10162704770B50C4616460546D1
:103F5000C0B1002C4ED0002D4ED0002C1ADBA2B2E6
:103F60002B7B69682BB3032B23D0013B9BB2012B26
:103F700037D8002C2FDB002C40DD002E40D0091B51
:103F800069601CE01F4B40F23F221F491F4803F0AD
:103F9000C1FCDEE7A2B2524292B26B899342DFD2F9
:103FA000184B40F247221A49184803F0B3FC01208D
:103FB00021E00B1B6B6005F11002934208D3A4B201
:103FC0006B8923446B812B891C442C81002012E0D7
:103FD000696001200FE06B899342CCD3091B6960B3
:103FE000EDE7084B40F277220A49084803F092FCBB
:103FF000012000E0002070BD0020FCE70120FAE76E
:104000000120F8E7888E0008B88E0008C48B0008ED
:10401000C48E0008E48E000870B5049C04280AD8F9
:10402000DFE800F01214030507000E200FE0002067
:104030000DE000200BE0134B40F2C512124913486B
:1040400003F068FC002017E0362000E02220033057
:1040500020F003000E18BDF81450AE4210D8002511
:104060001D6054B120445860022058731981598151
:104070001A730122DA81184670BD00205860F3E7F8
:104080000020F9E7888E0008F48E0008C48B000831
:1040900008B50022FFF758FF08BD08B50122FFF759
:1040A00053FF08BD70B528B10446037B032B0BD822
:1040B00000251FE0274B40F2D2222749274803F072
:1040C00029FC0025284670BD224B40F2DE222449FF
:1040D000224803F01FFCEBE71E4B40F2EB22214984
:1040E0001E4803F017FC0AE0236920469847013573
:1040F000EDB23446002CE5D0E389002BECD0E38907
:10410000013B9BB2E381002BDCD12668237B627BE1
:1041100012F0020F0AD02369002BE5D10D4B40F2BB
:10412000F92211490D4803F0F5FBDDE7032B07D019
:10413000013B9BB2012B08D92046FFF72BFCD6E7A9
:1041400021460520FFF708FED1E721460420FFF7AE
:1041500003FECCE7888E0008B88E0008C48B0008E8
:10416000188F0008308F0008488F00082DE9F843A9
:104170000E46174604280AD8DFE800F0121403059B
:1041800007000E240FE000240DE000240BE0634B39
:104190004FF48B726249634803F0BCFB0025AEE02C
:1041A000362400E02224032F00F2AC80DFE807F081
:1041B000789898020520FFF7B5FD0546002800F025
:1041C0009E8007730023036004F11003034403334C
:1041D00023F0030343600681E21C22F00302C2F5D0
:1041E0001472B24228BF324692B24281134400F5A3
:1041F0001878434505D80123EB816B89F61AA94647
:1042000028E0464B4FF498724749464803F082FB3A
:10421000F1E72846FFF746FF254670E03F4B4FF495
:10422000A67242493F4803F075FB25E03B4B4FF433
:10423000A9723F493B4803F06DFB2BE0374B40F23E
:1042400055123949374803F065FB0123E38163893F
:10425000F61AA146002E4EDD0520FFF763FD044649
:104260000028D6D00773002343730360C9F8000009
:104270004FF6FE739E42D1DCB3B22381B3F5147FB7
:1042800028BF4FF41473638104F11003636013F0CB
:10429000030FCBD16B686A8913449845D5D2CDE71B
:1042A00004F1130020F0030083B2F21C90B220F05E
:1042B0000300184480B222F0030290422BD3FFF790
:1042C00041FC0546D8B104F110030344033323F045
:1042D00003034360068146810023036007730AE0FD
:1042E0000420FFF71FFD054648B100234360068107
:1042F0004681036007730123EB8100236B7328461B
:10430000BDE8F883054B4FF4C6720A49054803F02F
:1043100001FB0025F3E70025F1E700BF888E0008C8
:104320006C8F0008C48B0008888F0008F08F00088D
:1043300004900008349000082DE9F0410E46044630
:1043400070B1237B032B04D0012B02D00BB1022BC5
:104350000ED12789B74243D9A6EB0708354616E0A8
:104360002A4B40F2F3122A492A4803F0D3FAE8E72D
:10437000264B40F2F7122849264803F0CBFAE8E72B
:10438000F31B228912FA83F32381246884B16389A1
:10439000AB4215D2ED1AADB24FF6FE739845EFDD84
:1043A0001A4B40F20B221D491A4803F0B3FAE7E713
:1043B000164B40F20F221A49164803F0ABFAE6E713
:1043C000227B2AB9AB4203D0637B13F0020F09D0E2
:1043D00065812581206808B1FFF764FE0023236012
:1043E000BDE8F08163681B1B15FA83F189B2204692
:1043F000FFF71EFB04460028EAD1044B40F21D22C1
:104400000849044803F086FAE2E700BF888E0008F6
:1044100050900008C48B0008689000088490000841
:1044200098900008B0900008002302E001339BB28E
:1044300000680028FAD118467047000070B108B52E
:10444000C38901339BB2C38103B108BD044B40F261
:1044500039320449044803F05DFAF6E7704700BFBB
:10446000888E0008CC900008C48B000838B510B1C5
:104470000D46044661B9154B40F24D3214491548BA
:1044800003F048FA19E02B8921890B442381144653
:104490002268002AF7D1228963899A420ED12368C3
:1044A00033B10A4B40F256320B490A4803F032FA54
:1044B0002B89228913442381256038BD034B40F2A8
:1044C00055320649034803F025FAE8E7888E0008CC
:1044D000E0900008C48B000848910008189100087B
:1044E00010B50C46FFF7C2FF2046FFF7A7FF10BD2F
:1044F0002DE9F04150B10E46074639B102890B89CA
:104500009A4203D34FF0000845463CE03D4B40F251
:10451000BD323D493D4803F0FDF96FF00F006EE0FC
:104520005B1B9CB237E0374B40F2CD3238493748FD
:1045300003F0F0F93EE0334B40F2CE3235493348D8
:1045400003F0E8F939E03F680FB100253EE00EB90D
:1045500000253BE02B4B4FF476722F492B4803F09C
:10456000D9F96FF00F004AE03368002B33D0254BA8
:1045700040F2DE322949254803F0CCF96FF00500FE
:104580003DE0002E3AD07B89591B7489A4EB0802C8
:104590009142C5DB94B27868716822464144284450
:1045A00003F0A5F92544ADB244441FFA84F87B8991
:1045B000AB42B8D373894345BDD37389434502D811
:1045C00036684FF000087B89AB42BCD01EB17289BF
:1045D00033899A42C8D0002FD3D07A893B899A4236
:1045E000CFD13B68002BCCD0064B40F2E3320B49D5
:1045F000064803F08FF96FF0050000E00020BDE8E9
:10460000F08100BF888E000894910008C48B0008D8
:10461000C4910008DC910008F89100080892000895
:104620002DE9F84348B188469146064679B1038999
:10463000934216D31446002730E0234B40F28442C5
:104640002249234803F066F96FF00F0038E01E4B53
:1046500040F285421F491E4803F05CF96FF00F00DD
:104660002EE0194B40F286421B49194803F052F9DB
:104670004FF0FF3024E0144B40F28E4217491448AB
:1046800003F048F90DE02A4608EB0701706803F0D3
:104690002EF9641BA4B22F44BFB2366834B1002E89
:1046A000E9D07589A542EED32546ECE74F4509D000
:1046B000054B40F299420A49054803F02BF90020C6
:1046C000BDE8F8830020FBE7888E00087892000898
:1046D000C48B000890920008AC920008CC920008AD
:1046E000E49200082DE9F04105468846174603206C
:1046F000FFF718FB00B3044602F04EF81F4B1E688C
:1047000016B31E4B5B68C01A00232360C4F80880F0
:10471000E76028446060D6B17368AB421AD832466D
:1047200082B1516863685B1A63601168C1B14868FF
:10473000834215D30A46F3E7114BD422114912489C
:1047400003F0E8F8BDE8F08158600020DCE70B4B8F
:104750001C60F7E75D1B75602660084B1C60F1E785
:1047600031B14868C31A4B60136823601460E9E7ED
:10477000AB42F9D973681D446560F5E7BC000020C1
:104780001093000844930008C48B000810B500245F
:1047900008E0084B03EBC402074953F83400FFF765
:1047A000A1FF0134012CF4D901F0F6FF034B58604E
:1047B00010BD00BF3C8B0008C1470008BC000020B2
:1047C00010B5044643689847224602492068FFF71F
:1047D00089FF10BDC14700080020104A1388591CEA
:1047E00011804FF6FF72934209D00D4B1B6893B1B5
:1047F000598A0A4A1288914206D0DB68F7E7074BCC
:104800004FF440421A80F0E7013080B2B0F5804F9B
:10481000E3D300207047014B188870470800002040
:10482000203200206AB1A8B10368ABB1104A5269C6
:10483000B2F1FF3F12D0896853400B4210D00020E4
:10484000704778B103687BB1094A526993420DD031
:1048500000207047012070470120704701207047F9
:1048600001207047012070470120704701207047E8
:10487000EC010020704700002DE9F04F85B0804624
:104880004389072B17D90F464468424B196858696A
:1048900001F0EBF803902088FEF7E5FF8246608880
:1048A000FEF7E1FF06463C4BD3F800904C464FF034
:1048B000000B5D4609E0FFF7F5FB05B0BDE8F08FA2
:1048C000A38A534515D02546E468FCB1638AB342F8
:1048D000F9D1039A39462046FFF7A4FF0028F2D009
:1048E000237C13F0040FEBD1BBF1000FE8D1A346FA
:1048F000E6E763681BB1274A12699342E3D12DB101
:10490000E368EB60C4F80C90234B1C608CB194B14D
:104910006FF007014046FFF7BBFBA8B91CB3A569C0
:10492000EDB1E069CDF800A01C4B42462146A847F6
:10493000C3E75C46EBE77A68164B5B699A42E7D0BF
:104940004046FFF7AFFBB8E7154B40F2551215494B
:10495000154802F0DFFF4046FFF7A4FBADE74046F5
:10496000FFF7A0FBA9E7039B83B90A4B5B6903F040
:10497000F003E02B0AD0074B9989083109B2404671
:10498000FFF78BFB0321404600F0B0FE4046FFF7E7
:1049900089FB92E7EC01002020320020FC0100207E
:1049A00084930008B4930008C48B000870B50446D3
:1049B0000D4649B15CB36DB31A4B1B68194629B15A
:1049C000A14213D0C968FAE7174DF3E7002682B970
:1049D000FFF702FF024600B32B6823606282FEB934
:1049E000104B1A68E2601C60002070BD0126EEE7E3
:1049F000DB68002BF0D0A342FAD0598A9142F7D15C
:104A0000186829688842F3D16FF00700EDE76FF06E
:104A10000500EAE76FF00500E7E76FF00700E4E75D
:104A20000020E2E720320020508B00082DE9F043FF
:104A300085B0002851D00446002A51D099469046AE
:104A40000D46428A22B90146FFF7B0FF074650BB28
:104A500008212846FFF71CFB48BB2E467389072B0D
:104A600033D97768608AFEF7FEFE38804846FEF745
:104A7000FAFE78800023BB71FB713089FEF7F3FEEC
:104A8000B880A37A627A0C99029111210191009267
:104A900042460D99304600F057FF0746AE4202D01D
:104AA0003046FFF7FFFA384605B0BDE8F083002234
:104AB00008210120FFF75AFB0646A0B12B89002BE5
:104AC000CCD02946FFF70CFDC8E7084B4FF43772EE
:104AD0000749084802F01EFFC3E76FF00507E2E749
:104AE0006FF00507DFE74FF0FF37DCE7849300083E
:104AF000C8930008C48B0008F0B583B0089DB8B116
:104B00000446C2B1064658B1006848B100F0F0074B
:104B1000E02F05D06F68B84203D06FF0030005E0C6
:104B20002E1D204601960095FFF780FF03B0F0BDD3
:104B30006FF00500FAE76FF00500F7E798B1F0B500
:104B400083B0054692B11F4614460E46104600F04B
:104B5000D9FD70B100903B46224631462846FFF70A
:104B6000CBFF03B0F0BD6FF0050070476FF005009C
:104B7000F7E76FF00300F4E728B108B5838A021D58
:104B8000FFF7DCFF08BD6FF0050070478161C2616F
:104B9000704710B50020FFF7C5F8044628B1202261
:104BA000002102F0AFFEFF23A372204610BD0000DB
:104BB000B8B102460368A3B199B10B688BB1094B38
:104BC0001B686BB110B401E0DB6833B11C6810687E
:104BD0008442F9D108681860F6E75DF8044B704725
:104BE000704770472032002010B5044600EB4002A9
:104BF000D300094AD05838B1FFF754FA04EB440205
:104C0000D300054A0021D15004EB4404E200024BDA
:104C1000134400221A7510BDC40000202DE9F84F7E
:104C20004FF0000CE346E1464FF00A0E634677462C
:104C3000F046F24603E06CB95FB20133DBB2092BF8
:104C400044D81A4603EB4304E500574C2C44247D1A
:104C50000A2FF0D0002CF0D040B102EB4205EE005C
:104C6000514D35446D680668AE420FD0012C0FD00F
:104C7000012CE2D902EB4202D4004B4A2244528A70
:104C80006245DAD34FFA83F89446D6E758B241E04A
:104C900002EB4205EC00444D2C595CB102EB4202A0
:104CA000D4002A462244528A4A45C6D34FFA83FE8C
:104CB0009146C2E702EB4202D4003B4A2244528AA8
:104CC0005A45BAD34FFA83FA9346B6E711F0020F6A
:104CD00064D10A2F20D00546092F23DCFFB2092F0B
:104CE0004CD83C4607EB4703DA002F4B13441B7D9F
:104CF000002B4BD135B1296804EB4403DA002A4B71
:104D00001344596004EB4404E200274B134400228F
:104D10005A8278B2BDE8F88F11F0010FDBD14FF065
:104D2000FF30F7E7B8F1090F14DC5FFA88F707EBFB
:104D30004702D3001C4AD35833B11C4B40F26F12C8
:104D40001B491C4802F0E6FD092F0FD83846FFF733
:104D50004BFFC4E7BAF1090F02DC5FFA8AF7F3E709
:104D6000BEF1090F1DDC5FFA8EF7EDE70F4B40F245
:104D7000811211490F4802F0CDFDE7E70B4B40F2DD
:104D800085120D490B4802F0C5FDAAE7074B40F21A
:104D900087120A49074802F0BDFDABE74FF0FF302C
:104DA000B8E74FF0FF30B5E7C4000020F8930008E3
:104DB00030940008C48B0008489400085C940008F4
:104DC000F0B583B004460D4616461F4690F82C30C9
:104DD000062B3BD1002D41D02868002841D0214628
:104DE00000F043FE00283FD12B6803F0F003E02BD6
:104DF0003DD0224639462846FFF710FF002823DB26
:104E00001D4D42001318D9006F1802233B75BC607A
:104E10000B4608332B4432685A60B2881A8100234B
:104E20007B826D5835B30027134A57504FF4006307
:104E30000093334604F12D022946204601F076FA0C
:104E40002846FFF72FF9384603B0F0BD0B4B40F270
:104E5000AB120B490B4802F05DFDBBE76FF00F0092
:104E6000F2E76FF00F00EFE76FF00F00ECE76FF085
:104E70000F00E9E70020E7E7C4000020F8930008EE
:104E800088940008C48B00082DE9F04782B0894659
:104E9000924698460B9D0746002841D000221C21CF
:104EA0000220FFF763F90646002851D043891B2BE7
:104EB0003ED97468BDF83400FEF7D5FCE08097F861
:104EC0002C30062B3CD1D8F80030A360B8F8043061
:104ED000A3812B68C4F81230AB88E3820A9B1B685D
:104EE000C4F80E300C9B1B68A361002525700123BC
:104EF00063700823A370E570062323710423637194
:104F000040F60603009353464A463146384601F0C0
:104F10000DFA3046FFF7C6F8284602B0BDE8F08724
:104F20000D4B4FF48B620D490D4802F0F3FCB5E7D1
:104F3000094B40F264420B49094802F0EBFCB8E728
:104F4000054B40F26B420849054802F0E3FCBAE722
:104F50004FF0FF30E1E700BFF8930008AC94000881
:104F6000C48B0008BC940008F094000830B585B0EC
:104F7000034600F12D0404330125039502910449F1
:104F80000191009323462146FFF77EFF05B030BD17
:104F90005C8B000838B50546002401E00134E4B21A
:104FA000092C10D8204604EB4403DA00064B1344C6
:104FB0001B7D002BF2D0044B13449B68AB42EDD118
:104FC000FFF712FEEAE738BDC40000202DE9F041EA
:104FD00086B079B104460E4645682B88B3F5807FCC
:104FE00002D12B79062B0DD02046FFF75BF806B0D7
:104FF000BDE8F081204B4FF422722049204802F096
:1050000089FCF4E76B79042BEED16B88082BEBD18C
:10501000D5F80E300593AF694B688BB905F10808D8
:1050200000270223424605A93046FFF7C9FEEB8858
:10503000B3F5807F00D177B92046FFF733F8D6E784
:10504000BB4214BF0027012705F108080FB1012357
:10505000E8E70223E6E706F12D01331D0222039261
:1050600005AA0292CDF8048000930B4642463046D2
:10507000FFF70AFFE0E700BFF8930008AC940008D0
:10508000C48B000808B5024AFFF770FF08BD00BFD7
:10509000548B000838B5002405E0042B1DD9FFF718
:1050A000A3FD0134E4B2092C38D8204604EB4403B4
:1050B000DA001B4B13441B7D002BF2D01146184A1B
:1050C0000A44538A01339BB25382B3F5967FE6D2EA
:1050D000134A0A44127D012ADFD0032A0ED0042A83
:1050E00014D0012ADDD10E4A43001D18E9001144F5
:1050F0000A4604319068FFF7C5FFD2E700EB400095
:10510000C200074B134404221A75CAE700EB4000A3
:10511000C200034B134402221A75C2E738BD00BF18
:10512000C400002070B582B005460E46144602EB5E
:105130004203DA002C4B13441B7D012B19D904EBDD
:105140004403DA00284B13441B7D022B19D004EBD7
:105150004404E3000833244A13444FF400620092ED
:10516000043305F12D023146284601F0DFF802B084
:1051700070BD1E4B40F2ED221D491E4802F0CAFBD5
:10518000DDE7194B13445B8AB3F58E7F19D8B3F56D
:10519000877FDCD3144A63001819C1000846114404
:1051A00008300244043204312846FFF7DFFE0028AD
:1051B000CDD104EB4403DA000B4B134403221A75E0
:1051C000C5E704EB4402D3000749194404312846DB
:1051D000FFF758FF0028BAD104EB4403DA00024B72
:1051E000134403221A75B2E7C4000020F8930008A4
:1051F00078950008C48B00082DE9F04782B0074677
:105200000D46904600F12D090146286800F02DFC5E
:10521000002840F0B2802B6803F0F002E02A00F092
:10522000AF80002D00F0AF80002B00F0AF803A4639
:1052300001212846FFF7F2FC041E5BDB264604EB47
:105240004403DA00544B13441B7D3BBB62002244F1
:10525000D100514B0B444FF0010A83F814A09F601A
:1052600006EB4603DA004C4B13441B7DCBB1BAF17D
:10527000000F1ED1B8F1000F1BD04FF0FF35B8F171
:10528000000F20D006EB4603DA00434B13441B7D8E
:10529000012B20D8012B45D02C462BE04FF0000AE3
:1052A000DEE73E4B40F2C9323D493E4802F032FB58
:1052B000DDE729463846FFF7E5FE0546B8F1000F61
:1052C000DDD1044616E0354B40F2DB323649354835
:1052D00002F020FBD6E7304B83F8F040083213444D
:1052E0004FF40062009204334A464146384601F0CA
:1052F0001DF80446204602B0BDE8F087237B012B51
:1053000025D1246884B1628923899A42F6D1236821
:10531000002BF3D0214B4FF47B722449214802F03B
:10532000F9FAEBE74446EDE7002393B10022218927
:105330000220FEF71BFF044678B14146FFF7D8F87C
:1053400058B12046FEF7AEFE4FF0FF34D2E70123FE
:10535000EBE74046FFF772F84446D4B106EB46024D
:10536000D3000D4AD05808B1FEF79CFE06EB460666
:10537000F300094AD4500024BCE76FF00F04B9E7EA
:105380006FF00F04B6E76FF00F04B3E76FF00F0490
:10539000B0E74FF0FF34ADE7C4000020F8930008F9
:1053A000A8950008C48B0008D0950008DC9500087B
:1053B00070B584B00E461446054600282FD0002E46
:1053C00035D0002C3BD02946206800F04EFB002849
:1053D0007BD1236803F0F002E02A38D06A68A9681C
:1053E0005A400A4209D09BB24FF6A962934204D0B8
:1053F000EB68002B75D005F10C043B4B93F8F020C3
:1054000002EB4200C1000B441B7D012B55D92068E3
:10541000354B0B445B6898422FD0002234E0334B6D
:1054200040F21B323249334802F074FAC7E72F4B7F
:105430004FF4477230492F4802F06CFAC1E72B4B0A
:1054400040F21D322D492B4802F064FABBE70123DC
:105450008DF8083000238DF809305E238DF80A306E
:10546000637803F07F038DF80B30A3788DF80C3050
:10547000E3788DF80D3002AB28E031462846FFF77F
:1054800051FE2CE0013252B2092A18DC02EB420331
:10549000D900154B0B441B7D012BF3D92068124B0F
:1054A0000B445B689842EDD1D2B20F4B83F8F020E9
:1054B00031462846FFF736FE11E00022E4E7324687
:1054C00021462846FFF798FE09E00D4B4FF4006295
:1054D000009205F12D023146284600F027FF04B066
:1054E00070BD6FF00300FAE7C4000020F8930008D5
:1054F000AC940008C48B0008D095000858950008AB
:10550000548B00082DE9F04186B0064688461746C0
:10551000002224210120FEF729FE002837D005466D
:105520004389232B36D9D6F804C06C6884F80080F0
:105530006770002323716371A371E3716F687368EF
:105540001E6858689968D3F80CE0BE60F86039614D
:10555000C7F814E01E6958699969BE61F86139623B
:10556000DCF80C3006A840F8043D00F0CBF858B148
:105570000021A170E1700290012301930091FF23AB
:1055800005AA284600F05CFA2846FEF78BFD06B017
:10559000BDE8F081034B4FF4B1720349034802F0B8
:1055A000B9F9C0E7F895000830960008C48B0008E8
:1055B0002DE9F04184B00546474B9E68347804F0ED
:1055C0000F04A400132C15D90F464389032B11D9BE
:1055D00043681B78082B5DD13F4B586900F0F003FE
:1055E000E02B23D03C4B196800F03FFAF0B92B892F
:1055F000072B05D82846FEF755FD04B0BDE8F0811D
:1056000004F10E012846FEF743FDA8B32989214481
:10561000002289B20220FEF7A9FD804630B14289FE
:1056200004F108039A4205D2FEF73CFD2846FEF736
:1056300039FDE2E722463146406802F058F96142FE
:105640004046FEF725FD48B1244BAF2224492548AA
:1056500002F060F94046FEF725FDE7E7294640469F
:10566000FEF746FF18B14046FEF71CFDDEE7284670
:10567000FEF718FD454607E0C4F57F41F23109B257
:105680002846FEF705FD48B96E6821462846FEF714
:10569000FFFC50B12846FEF705FDAEE70F4BC022D8
:1056A0001149104802F036F9C0E768680A494B69A9
:1056B000C3600B69036100223270B270F270FF2385
:1056C00003728272C272029701200190009214311B
:1056D000284600F0B5F9DDE7EC010020F895000858
:1056E0005C960008C48B00089496000808B50A462A
:1056F0000321FFF707FF08BD08B50A460B21FFF796
:1057000001FF08BD274B1B682DE01B68BBB193F858
:10571000332012F0010FF8D012F0040FF5D05968C1
:105720000029F2D004689D686140294216D012F029
:10573000020FEAD1DA689442E7D118460AE01A4A21
:10574000106838B190F8332002F00502052A07D11D
:1057500042680AB130BC70471846FBE71846F9E7C3
:105760001846F7E71B6863B193F8332012F0010F76
:10577000F8D012F0040FF5D059680029F2D030B4F7
:10578000D0E7094A106838B190F8332002F00502DA
:10579000052A04D1426802B170471846704718467E
:1057A000704700BF183200201C3200202DE9F8435A
:1057B000044647683B781A09042A04D0FEF772FCB5
:1057C0000020BDE8F883884603F00F039E00788828
:1057D000FEF749F805462389834214D86389B3420A
:1057E00016D32389AB4213D3132E11D93B69544AE4
:1057F0005361F968116103F0F003E02B0CD04546CA
:105800004FF0010917E001462046FEF795FDE5E758
:105810002046FEF747FCD3E798F8333013F0010F2A
:1058200026D0D8F80430002B5ED1002521E02D6869
:1058300045451BD0EDB195F8333013F0010F09D079
:105840006B683BB13E4A5069834212D0294600F052
:105850000CF970B9B9F1000FE9D0394B1B7D7F2BE2
:1058600044D0384B1D684FF00009E1E72D68E1E7AF
:1058700000254146324B186900F0F7F8002837D16F
:105880002F4B1B6903F0F003E02B31D0002D33D0F8
:10589000FB8823F0C0039BB233B1204600F02AFB03
:1058A000044600288CD04768254A1560C2F8048059
:1058B00097603B7803F00F039B0093817142204671
:1058C000FEF7E6FB7B7A012B1AD0112B1DD1414646
:1058D0002046FEF7D1FF1A4B00221A605A609A60E8
:1058E0009A811A615A616BE74546C2E70025C0E715
:1058F0002046FEF7D7FB63E72046FEF7D3FB5FE7C2
:1059000041462046FFF754FEE5E729460C4B58690F
:1059100000F0ABF828B90A4B5B6903F0F003E02B09
:1059200003D12046FEF7BEFBD5E731462046FEF701
:10593000B4FB676002212046FFF7D8FEF1E700BF05
:10594000EC010020183200202DE9F04383B0054619
:105950008946164698460C9FC389012B3DD1002EDF
:105960004FD014212846FEF793FB002858D16C68CD
:105970006B89132B39D984F808809DF82C30637219
:1059800033682361452323709DF82830637028898C
:10599000FDF769FF60800023A371E371DFF89C804D
:1059A000B8F80000FDF75FFFA080B8F800300133C1
:1059B000A8F80030B9F1000F1FD0D9F80030E3602B
:1059C0000023A372E3727B8D0BBB7B6932462946B1
:1059D0003846984703B0BDE8F083134B40F23332AA
:1059E0001249134801F096FFB9E70F4B40F26132BC
:1059F00010490F4801F08EFFBDE70F4B1B68E360B5
:105A0000DEE76B681B6902AE46F8043DDBE72A89D6
:105A10009342DAD232463946284600F03DFBD9E7B8
:105A20006FF00100D6E700BFC8960008FC9600089A
:105A3000C48B000808970008508B0008B6010020AE
:105A400030B585B00A9C15461AB109B10A6802B989
:105A5000211D02949DF8242001929DF8202000929F
:105A60002A46FFF771FF05B030BD431E13F1030F47
:105A700011D891F8333013F0020F0ED04B688342E7
:105A80000DD08A68434013420BD1D24332EA00035F
:105A900009D0002070470120704700207047002087
:105AA00070470020704701207047000038B5044659
:105AB0000C4B1B68834208D00D4651B123682B6004
:105AC00021460120FEF748F938BD0268054B1A60EF
:105AD000F6E7054B40F245120449054801F01AFF6C
